:10000000979100009381416F17010300130181FF55
:08001000EF80401F6F000000AB
:1000180017930000130303EF83260300032643000E
:10002800370E01FF93D886001358860093F8F80F0F
:100038001378F80F9398880013F7F60F13188800B1
:100048009377F60F130EFEFF33671701B3E7070127
:10005800B70EFF00B708FF00B3FED601B37816014C
:100068003377C701B3F7C701370800011308F8FF52
:10007800138F16003367D70113DE8601B3E7170124
:1000880093588601130101FEB336DF00131E8E015B
:100098003377070193988801B3F707013367C701DE
:1000A8003388C600B3E71701130681009306800062
:1000B800232E11002324E1002326F1002320E3014D
:1000C80023220301EF6050078320C10113010102BD
:1000D8006780000097970000938707E483A60700CE
:1000E80017970000130707E323A0A700832707003B
:1000F8006388050003A6050023A0F5002320C70098
:10010800138506006780000097970000938747E0F3
:1001180083A6070017970000130747DF23A0A7004F
:10012800832707006388050003A6050023A0F500C0
:100138002320C700138506006780000097970000FA
:10014800938707DE03A7070023A0A700979700005F
:100158009387C7DC23A0B7003335E0006780000031
:100168001305200067800000130101FF232481008C
:10017800232611001307B000138405006302E50E5F
:1001880093070500636CA706130740009306060053
:100198006304E510130760006316E50883A70500EC
:1001A8007326303413D7D7001377C7073387E60091
:1001B8000327070093D7C70093F7370093568700A4
:1001C800130510009375F70F93F6F60F638AA700CF
:1001D80093570701135787012301F600A301E6008F
:1001E800A300D6002300B6008320C10013054400F5
:1001F8000324810013010101678000003707008094
:1002080093067700630CD50E1307B7001385050016
:100218006396E7148320C1000324810013010101C0
:100228006780000013072000631AE5029797000013
:10023800938707CF83A70700638007020324810001
:1002480017970000130787CD8320C1008326070076
:1002580013010101678007006F0000006F000000B4
:10026800979700009387C7CA83A70700638407028C
:1002780017970000130787C903250700E7800700C1
:100288008320C100130544000324810013010101E8
:10029800678000006F00000083A7050073263034D4
:1002A80013D7C70013773700930510006304B70806
:1002B8000345160003480600834526000347360019
:1002C8001315850033650501139605013366A600ED
:1002D800131787013367C70093D757008320C100DE
:1002E8001305440093F7C70703248100B386F6007B
:1002F80023A0E60013010101678000009797000022
:10030800938787C183A707006384070217970000B4
:10031800130747C003250700E78007008320C100B3
:100328001305040003248100130101016780000004
:100338006F0000000347160083450600374600009B
:100348001317870033F6C7003367B700E31606F8BC
:1003580013170701135707416FF01FF86FF01FF0CD
:10036800130101F3B772FFFF2326110C2324810C1C
:100378002322910C2320210D232E310B232C410BFA
:10038800232A510B330151001306C0071309050036
:10039800938905001305410393050000B7940000F5
:1003A8003774FFFF23280102EF709057130404F8F5
:1003B8009387040AB3878700130701013384E70092
:1003C8001305040093050002EFF09FC49306000292
:1003D800130604001305040093050008EF60C071BC
:1003E80037C5FFFF9387040AB387A70013070101E6
:1003F8003385E70093050400EF10C0471304040297
:1004080013060000930504001305010BEF10C05DEF
:100418003795FFFF9387040AB387A70013070101E5
:100428003385E7001306400093050400EF1010140D
:100438003787FFFF9387040AB387E7001307010193
:100448003387E700930607009307010B03A807000B
:1004580003A5470083A5870003A6C700232007013B
:100468002322A7002324B7002326C7009387070168
:1004780013070701E39CD7FC37940000B787FFFFF9
:100488001307040A3307F70093070101B307F700BE
:10049800138507002324F100EF10406EB7A7FFFF74
:1004A8009306040AB386F60093070101B387F600A2
:1004B8002322F1000326810003254100B7C5FFFF71
:1004C8009307040A13070101B387B700B385E70050
:1004D800EF10404503254100930A0400377AFFFFD7
:1004E800EF10902F83254100B797FFFF1307040AE9
:1004F8003307F70093070101B307F70013860700D6
:10050800138505002324F100EF1090160325410000
:1005180093040AF6EF10101103264100B7B7FFFF46
:100528001307040A3307F70093070101B307F7001D
:1005380093850700130506002326F100EF10D03A33
:1005480013040AF893870A0A1307010103264100D6
:10055800B38787003384E700930504001305090077
:10056800EF00101C93870A0A13070101B38797004D
:10057800B384E700130609001385040093060052AC
:1005880093050002EF60405793870A0A1307010199
:10059800B387470103288100B387E7000327C10019
:1005A80013850900930604061386040093050400C6
:1005B800EF001031B7920000330151008320C10CC5
:1005C8000324810C8324410C0329010C8329C10BCA
:1005D800032A810B832A410B130500001301010D27
:1005E800678000001301019FB742FFFF232291603B
:1005F8002326715FB744FFFFB7CB000023261160A5
:100608002324816023202161232E315F232C415F25
:10061800232A515F2328615F2324815F138A04B250
:100628002322915F2320A15F232EB15D93870B5B6B
:1006380033015100B387470113080102338A0701C8
:10064800B787FFFF13880B5B3308F8009307010295
:10065800B307F8002326F10013880B5BB777FFFF79
:100668003308F80093070102B307F8002328F100C4
:10067800138906008327C10083260101930A0A040F
:10068800130B0A0213080700130406001307015D81
:1006980013860A0093090500138C050013050A0048
:1006A80093050B00EF00D044938404A593870B5B5C
:1006B800B387970013070102B384E700138504008A
:1006C800EF50507893050B001306000213850400C1
:1006D800EF50507A130609009305040013850400AF
:1006E800EF50507913850400EF50507C13860400B6
:1006F8009305000413050A06EF608002130B0A0A2B
:1007080013860A00930600069305000413050B00E0
:10071800EF60803EB7C7FFFF13870B5B3307F70017
:1007280093070102B307F7001385070093050A0032
:10073800232EF100EF1000141305015DEF100044A3
:100748000325C1003764FFFFB74AFFFFEF1010040D
:100758000325010113890AC0EF10500393870B5B2F
:10076800B3878700930601023384D700B757FFFF8A
:1007780093860B5BB386F6009307010213870B0081
:10078800B387F600232CF1009306075BB797FFFFAA
:10079800B386F60093070102B387F6002326F1001B
:1007A8009307075BB38727011307010213060000AD
:1007B800930B04003389E700032581019307160092
:1007C80093050B00939C0701EF10C0288327810134
:1007D80093DC0C011307040003A5070083A5470059
:1007E80003A6870083A6C7002320A7002322B700FB
:1007F8002324C7002326D70093870701130707017F
:10080800E39C77FD13050400EF1040378325C101F1
:100818000325C1001306040037CD0000EF10801037
:100828000325C100EF10407B0325C100EF10805F56
:100838000326C100B7A7FFFF13070D5B3307F700B7
:1008480093070102B307F700938507001305060015
:100858002328F100EF10D00F8325C100138509006C
:10086800EF10D02313850400EF50D05D1306000469
:1008780093050A0613850400EF50D05F938509009D
:100888001306003013850400EF50D05E1385040072
:10089800EF50D06113860400930500021385090008
:1008A800EF5010689385090013050900EF20401ADE
:1008B80013050900EF10903893070D5BB3875701B4
:1008C800130701023386E7009305090013050400A6
:1008D800EF10403413050400EF10002F03268101A8
:1008E8009305040013050400EF10C022B7050200A9
:1008F800938525FB13050400EF1040406316050C93
:10090800B7B7FFFF13070D5B3307F7009307010223
:10091800B307F700232AF100032541013786FFFFBB
:1009280093070D5BB387C700130701023386E700FF
:1009380093050900EF10006F03254101930D0D0089
:10094800377D0100EF10406983250101032641012D
:1009580013850500EF1040580325010193052D3B31
:10096800EF10807163120506032541013776FFFFFA
:1009780093870D5BB387C70013070102930509002E
:100988003386E700EF10006A03254101EF10C064C9
:100998000325410193050D40EF10006E6316050213
:1009A800832501010326410113850500EF10404C02
:1009B8000326C1008325010103254101EF10C07FF3
:1009C8009307000563F6A70013860C006FF0DFDEBF
:1009D8008326410113850900130604009385090045
:1009E800EF005034B7170000938747972320FC0087
:1009F800B7C20000330151008320C1600324816025
:100A080083244160032901608329C15F032A815F30
:100A1800832A415F032B015F832BC15E032C815E18
:100A2800832C415E032D015E832DC15D13050000FB
:100A38001301016167800000130101FF2324810075
:100A480023229100232611001384060093840500B5
:100A5800638A060237180000130838979387F6FF51
:100A680033880601B307F6003308050103C30700FE
:100A7800938807001308F8FFA30068009387F7FF1F
:100A8800E31616FF37160000130646979306040070
:100A9800938504003306C500EFF0DFB483A7040094
:100AA8008320C10013050000B38787000324810059
:100AB80023A0F40083244100130101016780000092
:100AC80013010181B782FFFFB71700002326117EAB
:100AD8002324817E2322917E2320217F232E317D92
:100AE800232C417D232A517D2328617D2326717D76
:100AF8002324817D2322917D2320A17D938202F4EA
:100B080093874797330151006392F52CB79C0000F7
:100B180013090700B797FFFF13870C873307F70000
:100B280093070101B307F700B774FFFF2322F10011
:100B3800138C047993870C87B38787011307010106
:100B480083254100338CE700130A0500930A060049
:100B580013050C0013060900938B0600EF004049AB
:100B6800B7B7FFFF13870C873307F7009307010117
:100B7800B307F7009385047B2324F10093870C8740
:100B8800B387B70013070101371D00000326810052
:100B98003384E70093050D8793060A00B385E500C3
:100BA80013050400B789FFFFEF00D02D631005225D
:100BB80093070101B705020013050D87938525FBEF
:100BC8003305F500EF108013130B050063100520A3
:100BD800138A047F93870C87B387470113070101A2
:100BE800338AE700930600521306090093050002B2
:100BF80013050A00EF5050701389098393870C87F7
:100C0800B3872701130701013389E700130509009A
:100C1800EF5050231306000293050A00130509003C
:100C2800EF50502593850A0013860B001305090021
:100C3800EF50502413050900EF5050271306090000
:100C48009305000413050A00EF50902D938A09C0FC
:100C580093870C87B387570113070101B38AE7000D
:100C68009305040013850A00EF10905EB7C7FFFFD5
:100C780013870C873307F70093070101B307F700C1
:100C880093050C00138507002326F100EF00903E22
:100C98009307010113050D873305F500EF00106E6A
:100CA800B7A7FFFF13870C873307F70093070101E6
:100CB800B307F7002320F1008325C10003250100B5
:100CC8009307010113060D873306F600EF009045E0
:100CD80013850A00EF108076032541009389099057
:100CE8009384047DEF10C02503254100EF10002AEE
:100CF8000326410093850A0013050600EF10803291
:100D0800832501000326410013850500EF10C01C50
:100D180003250100EF10400C03250100EF10C02B44
:100D280003250100EF100010832501000326810030
:100D380013850500EF10005093870C87B3873701A0
:100D48001307010183250100B389E7001385090012
:100D5800EF10C05413050900EF50D00E130600041D
:100D680093050A0013050900EF50D0101306003050
:100D78009385090013050900EF50D00F13050900EA
:100D8800EF50D01293870C87B387970013070101A0
:100D9800B384E700930500021385040013060900D5
:100DA800EF501018930504001385040093060402FD
:100DB8006F008000638ED50003C7050083470500D8
:100DC8009385150013051500E306F7FE130BF0FFD6
:100DD800B78200009382020C330151008320C17E48
:100DE80013050B000324817E8324417E0329017EA1
:100DF8008329C17D032A817D832A417D032B017DBF
:100E0800832BC17C032C817C832C417C032D017CAA
:100E18001301017F67800000130101FE23282101CF
:100E280037190000232C8100232631012324410196
:100E3800232E1100232A91009307399793890600DE
:100E4800130A05001384050063E2D7049307F0FF33
:100E580023A0F500638A06001386090093050000A5
:100E680013050A00EF70C02B1305F0FF8320C101A2
:100E78000324810183244101032901018329C1003D
:100E8800032A81001301010267800000B7F6FFFF03
:100E98009386C6689304060013094997B386D90058
:100EA80023A0D50033062601930509001385040005
:100EB800EFF01FC16318050483270400E38807FACD
:100EC80093070000338727013387E4008346070030
:100ED8003307FA00938717002300D700032704007D
:100EE800E3E2E7FE8320C101032481018324410159
:100EF800032901018329C100032A8100130101028A
:100F0800678000009307F0FF2320F4001386090090
:100F18009305000013050A00EF7080206FF0DFF4DE
:100F2800130101FF3367B500232611002324810034
:100F3800232291002320210113773700938705008E
:100F480063180708138715003307E5401337370080
:100F58006310070803A705002320E50003A7450041
:100F68002322E50003A785002324E50003A7C50085
:100F78002326E50003A705012328E50003A745016B
:100F8800232AE50003A78501232CE50083A7C501D3
:100F9800232EF500930405021309060013040552D5
:100FA800930509001385040093840414EF10905BE3
:100FB80013090940E39684FE8320C10003248100BD
:100FC8008324410003290100130101016780000007
:100FD800130705009385070283C607009387170048
:100FE80013071700A30FD7FEE398B7FE6FF09FFA19
:100FF800130101FF3367A600232611002324810073
:10100800232291002320210113773700930705003D
:1010180063180708130716003307E540133737002E
:101028006310070803270600130406022320E500BF
:10103800032746002322E500032786002324E50032
:101048000327C6002326E500032706012328E50019
:1010580003274601232AE50003278601232CE50000
:101068000327C601232EE5001389050093040652C1
:10107800930504001305090013040414EF10905598
:1010880013090940E31694FE8320C100032481005C
:101098008324410003290100130101016780000036
:1010A80013070600130406028346070013071700F8
:1010B80093871700A38FD7FEE31887FE6FF0DFFA38
:1010C800130101FE232C8100130405003365B500CC
:1010D800232821012326310123225101232E110027
:1010E800232A9100232441011375350093880500B4
:1010F80093090700938A070013090800631E05185F
:1011080093871500B307F44093B737006396071821
:1011180083A705002320F40083A745002322F400B9
:1011280083A785002324F40083A7C5002326F400A1
:1011380083A705012328F40083A74501232AF40087
:1011480083A78501232CF40083A7C501232EF4006F
:1011580013070402B3E7E60093F73700639C07160A
:1011680093871600B307F74093B7370063940716C1
:1011780083A706002320F40283A746002322F40253
:1011880083A786002324F40283A7C6002326F4023B
:1011980083A706012328F40283A74601232AF40221
:1011A80083A78601232CF40283A7C601232EF40209
:1011B8009306040493071600B387F64093B73700E5
:1011C800639C070EB367D60093F737006396070E44
:1011D800832706002320F404832746002322F404EF
:1011E800832786002324F4048327C6002326F404D7
:1011F800832706012328F40483274601232AF404BD
:1012080083278601232CF4048327C601232EF404A4
:10121800130A04069304041E93850A0013050A00A2
:10122800130A0A06EF10D019938A0A40E39644FF7E
:10123800130A09001309043693050A0013850400EC
:1012480093840406EF10D017130A0A40E31699FE98
:10125800B71700009387079E3304F40093850900AD
:10126800130509001309091AEF10903E93890940E4
:10127800E31689FE8320C1010324810183244101EF
:10128800032901018329C100032A8100832A41001F
:101298001301010267800000130704009385080208
:1012A80083C708009388180013071700A30FF7FED9
:1012B800E39815FF6FF0DFE913070602834706007E
:1012C8001306160093861600A38FF6FEE318E6FEB3
:1012D8006FF01FF49385060283C7060093861600F5
:1012E80013071700A30FF7FEE398B6FE6FF05FEC45
:1012F800130101FE232C8100130408003368A800A1
:10130800232A91002328210123225101232E110091
:10131800232631012324410113783800930805005E
:1013280093840600930A070013890700631E0818B0
:1013380093071400B307F54093B73700639607186F
:1013480083270400130804022320F50083274400A0
:101358002322F500832784002324F5008327C40073
:101368002326F500832704012328F5008327440159
:10137800232AF50083278401232CF5008327C40141
:10138800232EF500B367060193F73700639E07160F
:1013980093071402B307F64093B73700639607160E
:1013A80083270402930804042320F60083274402B9
:1013B8002322F600832784022324F6008327C4020D
:1013C8002326F600832704032328F60083274403F3
:1013D800232AF60083278403232CF6008327C403DB
:1013E800232EF60093071404B387F54093B737000C
:1013F800639C070EB3E7150193F737006396070E52
:10140800832704049309040623A0F50083274404D2
:1014180023A2F5008327840423A4F5008327C404AA
:1014280023A6F5008327040523A8F5008327440590
:1014380023AAF5008327840523ACF5008327C40578
:1014480023AEF500130A041E9385090013850A00CC
:1014580093890906EF10D002938A0A40E3163AFFEF
:10146800930A09001309043693050A0013850A0034
:10147800130A0A06EF10D000938A0A40E31649FFC0
:10148800B71700009387079E3304F40093050900FB
:10149800138504001309091AEF10D02F9384044010
:1014A800E31689FE8320C1010324810183244101BD
:1014B800032901018329C100032A8100832A4100ED
:1014C8001301010267800000930704001308040257
:1014D80003C707009387170093881800A38FE8FEB7
:1014E800E318F8FE6FF01FEA138608009309040654
:1014F800834706001306160093851500A38FF5FE93
:10150800E31836FF6FF01FF49308040483470800BC
:101518001308180013061600A30FF6FEE39808FF39
:101528006FF05FEC13871500130101FE3307E540E8
:10153800232C8100232A9100232E11002328210126
:1015480023263101232441011337370093870500EF
:101558001304050093840600631607103367B5006B
:10156800137737006310071003A705002320E50051
:1015780003A745002322E50003A785002324E500EF
:1015880003A7C5002326E50003A705012328E500D6
:1015980003A74501232AE50003A78501232CE500BD
:1015A80083A7C501232EF500371A0000130A0A92F3
:1015B8001309040293090600330A440193850900BC
:1015C8001305090013090924EF10103693890940FF
:1015D800E3162AFF3719000013080992330804019B
:1015E800130508001306400593050000EF6050330B
:1015F800930709971308050013830400B308F40040
:10160800338E24019306000013050010130703000E
:101618009307000003260700B305D8001307470007
:10162800630606002380F50093861600938717004B
:10163800E392A7FE2380D800130303409388180081
:10164800E3166EFC8320C101032481018324410138
:10165800032901018329C100032A81001301010222
:1016680067800000130704009385070283C60700FC
:101678009387170013071700A30FD7FEE398F5FE0B
:101688006FF09FF293871600130101FDB307F54031
:10169800232A5101232861012326110223248102D0
:1016A8002322910223202103232E3101232C4101DF
:1016B800232671012324810193B73700138B060079
:1016C800930A060063960718B3E7A60093F7370056
:1016D8006390071883A70600138406022320F500E9
:1016E80083A746002322F50083A786002324F5005C
:1016F80083A7C6002326F50083A706012328F50043
:1017080083A74601232AF50083A78601232CF50029
:1017180083A7C601232EF500371900001309099283
:101728009384050033092B019305040013850400F5
:1017380013040424EF10902893840440E31689FED0
:10174800B7140000138A0497330A4B0113040000EE
:10175800130C0000130900059384F491930B1000F7
:10176800930940001315AC001306004093050000D0
:101778003385AA00EF60D01A03470A0093070700D1
:10178800636A87086368E9086372E404B305940030
:10179800B305BB001307040093168C0083C715001C
:1017A8006376E40003C605006376F606B387F600A1
:1017B80093972700B387FA0023A0770183470A008D
:1017C8001307170093851500E36AF7FC130C1C0038
:1017D800130A1A0063063C01138407006FF09FF890
:1017E8001307F0046362F7063717000093060792A1
:1017F800B387D70013070797B307FB00330BEB003A
:101808006F0080006382670503C70700938717008E
:10181800E30A07FE130510008320C1020324810296
:1018280083244102032901028329C101032A81017A
:10183800832A4101032B0101832BC100032C810062
:101848001301010367800000130500006FF0DFFC3F
:1018580013070B009307050013040B0283460700C8
:101868001307170093871700A38FD7FEE31887FE87
:101878006FF09FEA130101FDB71700002320210331
:10188800232E3101232C4101232A510123286101F0
:101898002326710123261102232481022322910287
:1018A800138A05003309F50093090000B7FBFFFF11
:1018B800371B0000930A0040B30479011384090020
:1018C80013060400130414001385040093050A008A
:1018D8001314040193840440EF009060135404012E
:1018E800E39024FF938909109399090193D9090179
:1018F80033896401E39259FD8320C10203248102E4
:1019080083244102032901028329C101032A810199
:10191800832A4101032B0101832BC1001301010319
:1019280067800000B7170000130101FE9387074086
:10193800232C8100232A9100232821012326310109
:1019480023244101232E1100130906001304054026
:1019580093840500B309F500371A0000930804C002
:10196800138508001306004093050000EF60407BD4
:101978009308050013080000B3069800330709010F
:101988009387080003A5070003A606008325070020
:1019980013000000130000001300000033A6A55038
:1019A80023A0C70093874700938646001307470084
:1019B800E39A87FC13080840E31048FD13840740A6
:1019C800B3840401E31C34F98320C1010324810199
:1019D80083244101032901018329C100032A8100CD
:1019E8001301010267800000130101FE2328210171
:1019F80037190000232C8100232A91002326310166
:101A0800232E110093040500938905001304060092
:101A180033092501930714001306040013850400F5
:101A28001394070193840440938509001354040117
:101A3800EF009066E39024FF8320C1010324810115
:101A480083244101032901018329C10013010102F3
:101A580067800000130101FE13162600232C810065
:101A6800232821011314060137190000232A9100A5
:101A780023263101232E11009304050093890500C4
:101A88001354040133092501130604001304140038
:101A980013850400938509001314040193840440FA
:101AA800EF10100113540401E39024FF8320C101B7
:101AB8000324810183244101032901018329C100F1
:101AC8001301010267800000130101FF23261100A2
:101AD800232481002322910013040500EF00100144
:101AE80013050440EF009000B7140000138504802C
:101AF8003305A400EF00807F138504C03305A400DC
:101B0800032481008320C1008324410013010101C3
:101B18006F00C07D130101FE232C8100232A910050
:101B2800232821012326310123244101232E1100DA
:101B380093090500138905009304060013040000A7
:101B4800371A000033868400B3058900338589007D
:101B580013040440EF009001E31644FF8320C10101
:101B68000324810183244101032901018329C10040
:101B7800032A81001301010267800000130101FF9D
:101B88002326110023248100232291001304050039
:101B9800EF00D00A13050440EF00500AB714000004
:101BA800138504803305A400EF005009138504C091
:101BB8003305A400032481008320C100832441004D
:101BC800130101016F009007130101FF2326110083
:101BD800232481002322910013040500EF005006FE
:101BE80013050440EF00D005B714000013850480E6
:101BF8003305A400EF00D004138504C03305A40006
:101C0800032481008320C1008324410013010101C2
:101C18006F001003930E0000138E0540130300009D
:101C2800371F000093870500B306D6013307D50197
:101C380003A8070083A80600130000001300000093
:101C48001300000033A8685023200701938747003A
:101C58009386460013074700E39CC7FD938E0E400A
:101C6800E392EEFD67800000130101FF232291003B
:101C78002320210193040600138905001306004060
:101C88009305000023248100232611001304050076
:101C9800EF600049130E00001303044037160000DC
:101CA80093070400B306C9013387C40183A807005A
:101CB80003A5060003280700130000001300000016
:101CC800130000003325185123A0A700938747006D
:101CD8009386460013074700E39A67FC130E0E40ED
:101CE800E310CEFC8320C10003248100832441003B
:101CF800032901001301010167800000130101FF9E
:101D08002320210137190000232481002322910078
:101D180023261100130405009384050033092501C7
:101D28001305040093850400EF00501713040440C2
:101D380063100502E31624FF8320C10003248100F9
:101D48008324410003290100130101016780000079
:101D58008320C1000324810083244100032901005A
:101D6800130510001301010167800000130101FE33
:101D78002328210137190000232C8100232A9100F0
:101D880023263101232E11009304050093890500B1
:101D980013040600330925019307140013060400F1
:101DA8001385040013940701938404409385090064
:101DB80013540401EF00502EE39024FF8320C10147
:101DC8000324810183244101032901018329C100DE
:101DD8001301010267800000130101FF232611008F
:101DE800232481002322910013040500EF000050F2
:101DF80013050440EF00804FB714000013850480DA
:101E08003305A400EF00804E138504C03305A400F9
:101E1800032481008320C1008324410013010101B0
:101E28006F00C04C130101FF2326110023248100F9
:101E38002322910013040500EF00404F13050440CE
:101E4800EF00C04EB7140000138504803305A400CA
:101E5800EF00C04D138504C03305A400032481009E
:101E68008320C10083244100130101016F00004C4D
:101E7800130101FE232C8100232A9100232821012C
:101E88002326310123244101232E11009309050043
:101E9800138905009304060013040000371A000094
:101EA80033868400B3058900338589001304044010
:101EB800EF00C04BE31644FF8320C10103248101D6
:101EC80083244101032901018329C100032A8100D8
:101ED8001301010267800000130101FE232C810019
:101EE800232A91002328210123263101232441019B
:101EF800232E110093090500138905009304060099
:101F080013040000371A000033868400B3058900E3
:101F18003385890013040440EF00C04AE31644FFE8
:101F28008320C10103248101832441010329010184
:101F38008329C100032A8100130101026780000080
:101F4800130101FF2326110023248100232291007D
:101F580013040500EF00C04C13050440EF00404C8B
:101F6800B7140000138504803305A400EF00404B2C
:101F7800138504C03305A400032481008320C10015
:101F880083244100130101016F008049130101FFFF
:101F98002326110023248100232291001304050025
:101FA800EF00C04913050440EF004049B714000092
:101FB800138504803305A400EF004048138504C04E
:101FC8003305A400032481008320C1008324410039
:101FD800130101016F008046130101FF2326110040
:101FE800232481002322910013040500EF004045BB
:101FF80013050440EF00C044B714000013850480A3
:102008003305A400EF00C043138504C03305A400C2
:10201800032481008320C1008324410013010101AE
:102028006F000042930E0000138E0540130300005A
:10203800371F000093870500B306D6013307D50183
:1020480003A8070083A8060013000000130000007F
:102058001300000033A86850232007019387470026
:102068009386460013074700E39CC7FD938E0E40F6
:10207800E392EEFD67800000130101FF2320210198
:102088003719000023248100232291002326110000
:102098001304050093840500330925011305040082
:1020A80093850400EF00805F130404406310050269
:1020B800E31624FF8320C100032481008324410008
:1020C8000329010013010101678000008320C1007A
:1020D8000324810083244100032901001305100013
:1020E8001301010167800000130101FE232C810008
:1020F800232A910023282101232631012324410189
:10210800232E110093090500138905009304060086
:1021180013040000371A000033868400B3058900D1
:102128003385890013040440EF008039E31644FF27
:102138008320C10103248101832441010329010172
:102148008329C100032A810013010102678000006E
:10215800130101FE232C8100232A91002328210149
:102168002326310123244101232E11009309050060
:10217800138905009304060013040000371A0000B1
:1021880033868400B305890033858900130404402D
:10219800EF00003AE31644FF8320C10103248101C4
:1021A80083244101032901018329C100032A8100F5
:1021B8001301010267800000130101FE232C810036
:1021C800232A9100232821012326310123244101B8
:1021D80023225101232E1100130A050093890500BB
:1021E800130906001304000093040000B71A000046
:1021F80033068900B385890033058A00EF00403A29
:1022080013040440B384A400E31454FF8320C101E1
:1022180003248101032901018329C100032A8100C4
:10222800832A41001385040083244101130101021C
:1022380067800000130101FE232C8100232A9100EE
:10224800232821012326310123244101232E1100B3
:102258009309050013890500930406001304000080
:10226800371A000033868400B30589003385890056
:1022780013040440EF00403BE31644FF8320C101F0
:102288000324810183244101032901018329C10019
:10229800032A81001301010267800000130101FF76
:1022A80023248100232291002320210123261100C9
:1022B8001304050093840500130905309385040071
:1022C800130504001304040CEF10C00293840440A7
:1022D800E31624FF8320C1000324810083244100E6
:1022E800032901001301010167800000130101FFA8
:1022F80023248100232291002326110013040500C2
:10230800930405400325040013044400EF10402AF9
:10231800232EA4FEE31894FE8320C1000324810029
:10232800832441001301010167800000130101FFAC
:102338002324810023229100232611001304050081
:10234800930405400325040013044400EF104028BB
:10235800232EA4FEE31894FE8320C10003248100E9
:10236800832441001301010167800000130101FF6C
:1023780023266101232471019307000093081000AC
:1023880013080040B386F5003307F60003AB0600D8
:10239800832B070013000000130000001300000047
:1023A80033AB1B613307F500232067019387470090
:1023B800E39A07FD032BC100832B81001301010160
:1023C80067800000130101FF2326610123247101A6
:1023D800930700009308100013080040B386F50027
:1023E8003307F60003AB0600832B07001300000039
:1023F800130000001300000033AB1B611300000042
:102408003307F5002320770193874700E39807FDFA
:10241800032BC100832B8100130101016780000099
:102428001307054083270500130545009397D70038
:10243800232EF5FEE318E5FE678000006F0050725A
:102448006F00107F130101FE232C8100232A9100C5
:10245800232821012326310123244101232E1100A1
:10246800930905001389050093040600130400006E
:10247800130A004033078900B387840083A7070045
:1024880003250700B315F5023305F502EF10000C1C
:10249800B387890023A0A70013044400E31C44FD6C
:1024A8008320C101032481018324410103290101FF
:1024B8008329C100032A81001301010267800000FB
:1024C800130101FE232C8100232A910023282101D6
:1024D8002326310123244101232E110093090500ED
:1024E800138905009304060013040000130A004032
:1024F800B387840083A5070033058900EF10001215
:10250800B387890023A0A70013044400E31244FF03
:102518008320C1010324810183244101032901018E
:102528008329C100032A810013010102678000008A
:10253800130101FE232C8100232A91002328210165
:102548002326310123244101232E1100930905007C
:10255800138905009304060013040000130A0040C1
:10256800B387840083A5070033058900EF10400D69
:10257800B387890023A0A70013044400E31244FF93
:102588008320C1010324810183244101032901011E
:102598008329C100032A810013010102678000001A
:1025A800130101FE232C8100232A910023282101F5
:1025B800232631012324410123225101232E110016
:1025C800130A050093890500130906001304000087
:1025D80093040000930A0040B387890033078900F9
:1025E80003A5070083250700EF10400CB3078A00F6
:1025F80023A0A70013044400B384A400E31E54FDE1
:102608008320C10103248101032901018329C10019
:10261800032A8100832A4100138504008324410191
:102628001301010267800000130101FE232C8100C1
:10263800232A910023282101232631012324410143
:10264800232E110093090500138905009304060041
:1026580013040000130A0040B3078900338784007D
:1026680003A5070083250700EF104008B3878900FA
:1026780023A0A70013044400E31044FF8320C101F2
:102688000324810183244101032901018329C10015
:10269800032A81001301010267800000B7071000B8
:1026A800938707C063C6B702130605406F00800012
:1026B8006304A60283270500130545001397170036
:1026C80093D6F7413377D700B387E740E3C2B7FE25
:1026D80013051000678000001305000067800000E4
:1026E800130101BB232A5143930A05001305010076
:1026F8002326114423248144232C41431304410DF0
:102708002322914423202145232E3143232861434A
:10271800232671432324814323229143EF405038D9
:10272800930550001305040013060100EF30D06430
:10273800B70580001308C14113070400130A0000FD
:102748009385F5FF37E57F0093080010834717004E
:102758008346270003460700939787009396060150
:10276800B3E7D700B3E7C70093162A00B3F7B7005B
:10277800B386DA001307370013061A006368F500FA
:1027880023A0F6006304160D130A0600E310E8FC04
:1027980093043000B70B8000130580341309001030
:1027A80093092000938BFBFF338C8440B37C950204
:1027B800330B494163860C0C330595419307054259
:1027C80033852700834745CB230AF10C63963C01E8
:1027D800834755CBA30AF10C330594011306010076
:1027E80093051000EF30505913858C0A93060400A6
:1027F8001306000037E87F0083C7160003C72600CA
:1028080083C506009397870013170701B3E7E7000E
:10281800B3E7B7003307CA009386360013172700BB
:10282800B3F77701B305DC003387EA006366F80085
:102838002320F7001306160063746601E37EB5FAD9
:10284800330ACA009307F00FE3F247F78320C14425
:102858000324814483244144032901448329C14337
:10286800032A8143832A4143032B0143832BC1421B
:10287800032C8142832C41421301014567800000EB
:10288800130504001306010093051000EF30D04E25
:102898001305800A6FF09FF5130101E8232631170D
:1028A8009309010923206117130B050013850900FB
:1028B800232E111623244117232C8116232A91161F
:1028C8002328211723225117EF4050231305810095
:1028D8001386090093051000EF305079130A0000A1
:1028E800930681001305F00013030010130ED00C9B
:1028F8009308200003C7060093172A00B305FB00BE
:102908009377F7003388F840135747006388A70484
:10291800B387C703130A1A0093D7A7001396270093
:10292800B307F600B387070123A0F500630EA704D9
:1029380063186A028320C11703248117832441176F
:10294800032901178329C116032A8116832A4116F0
:10295800032B011613010118678000006308A70202
:102968003306C70393152A003387E840B305BB0035
:10297800130A1A001356A60093172600B387C70038
:10298800B387E70023A0F500E3066AFA93861600EA
:10299800E392D9F6130400109304F000930AD00CC4
:1029A8001309200013860900930510001305810000
:1029B800EF30D06B13152A003305AB00B308444140
:1029C800930581001306000083C7050093162600AF
:1029D8009385150013F7F7003303E940B306D500D4
:1029E80093D747006300970233075703130616006F
:1029F8001357A700131827003307E80033076700A9
:102A080023A0E60063809704131726003308F940D3
:102A18003307E500636A1601330ACA009307F00F0B
:102A2800E3F247F96FF01FF1B38757031306160057
:102A380093D7A70093962700B387F600B3870701BB
:102A48002320F700E37A16FDE390B9F86FF0DFFC76
:102A5800130101E823244117130A0500130501098E
:102A6800232E1116232C8116232A91161384050070
:102A780023282117232631172322511723206117D2
:102A8800EF30503C930504001306000213050109BA
:102A9800EF30503E13050109EF305041130601098C
:102AA8009305100013058100EF30505C8347A100A7
:102AB800034691008346D1000345C1000347E10066
:102AC800834581008344B1000349F1001316860051
:102AD8009397070193968600B3E6A600B3E7C7006D
:102AE80013170701B3E7B7003367D700939484013E
:102AF80013198901130600409305000013050A0005
:102B0800B3E4F4003369E900EF50806193094A3671
:102B18001304900D93078000130B8008930A00108C
:102B2800638067091387071633072700034787EA77
:102B380093871700E366E4FE131727003307EA00BC
:102B48008326070013F614001316160023A0D900D5
:102B580093061000B386C64093D414001316F901E7
:102B68002320D70013041400B364960013591900E6
:102B780093894900E31654FB8320C1170324811766
:102B880083244117032901178329C116032A8116B3
:102B9800832A4116032B01161301011867800000D0
:102BA800130601099305100013058100EF30104C3E
:102BB8000347810093071000E366E4F66FF0DFF740
:102BC800938805401308200083A7C50003AF0501BB
:102BD80003A3850003A7850103AEC50183A64500AD
:102BE80003A64501B307F840330FE84183AE05005B
:102BF8003303684093F7F70F137FFF0F3307E8405D
:102C0800330EC841B306D8401373F30F3306C840D8
:102C18001377F70F137EFE0F93F6F60F93971700AF
:102C2800131F4F001376F60F931F63009396360019
:102C380013532300B3E7E70113172700131E5E00A1
:102C4800B3E76700B3E6F60113137600B30ED84175
:102C58003367C70113561600B3E6D601B3E767001A
:102C68003367C7002300D500A300F5002301E50062
:102C78009385050213053500E39815F56780000074
:102C8800930E05401303200003CE0500130505022B
:102C980093853500137E7E002320C5FF83C8D5FFAA
:102CA800330EC34193D8380093F87800232215FFD8
:102CB80003C7D5FF83C7E5FFB30813411357670060
:102CC800939727003367F700137777002324E5FEEF
:102CD80083C7E5FF3308E34093D7170093F77700DE
:102CE8002326F5FE03C7E5FF3306F34013574700D5
:102CF800137777002328E5FE03CFF5FF83C7E5FFA9
:102D0800B306E34013171F0093D77700B3E7E70034
:102D180093F77700232AF5FE03C7F5FFB307F340BF
:102D28001357270013777700232CE5FE03CFF5FF11
:102D38002320C5FF3307E340135E5F00330EC34112
:102D4800232215FF232405FF2326C5FE2328D5FEAD
:102D5800232AF5FE232CE5FE232EC5FFE316D5F323
:102D6800678000009386054083A7050093850501C9
:102D780013055500A30DF5FE83A705FF03A745FF1F
:102D880093D7874013172700B3E7E700230EF5FE14
:102D980083A745FF03A785FF93D76740131747000D
:102DA800B3E7E700A30EF5FE83A785FF03A7C5FFDA
:102DB80093D7474013176700B3E7E700230FF5FEE3
:102DC80083A7C5FF93D72740A30FF5FEE39ED5F849
:102DD800678000009386051483C7150003C70500A4
:102DE8009385550093978700B3E7E70093F7F73F7C
:102DF8002320F50083C7C5FF03C7D5FF13050501C9
:102E080093D7270013176700B3E7E70093F7F73F57
:102E1800232AF5FE83C7D5FF03C7E5FF93D74700ED
:102E280013174700B3E7E70093F7F73F232CF5FEA6
:102E380083C7E5FF03C7F5FF93D76700131727007C
:102E4800B3E7E700232EF5FEE398B6F867800000A5
:102E5800130101FD23268102232491022322210349
:102E680023203103232E4101232C5101232A610100
:102E780023287101232681019302051A371E0000B9
:102E880003AF050083A8450003A8850083AEC500ED
:102E980003A7050103A6450183A7850183A6C501EC
:102EA800B3081E41B30EDE413307EE40B307FE40C0
:102EB800330FEE4133080E413306CE40B306DE40F1
:102EC800139C580013D4B800931B2800139B7E0052
:102ED80093D39E00931A4700935FC700131A1600F6
:102EE8009399670013D3A7001399360093548F0062
:102EF8001358680013567600B3E4840193D8380059
:102F0800336474013368680193DE1E00B3E3530130
:102F180013574700B3EF4F013366360193D72700A5
:102F28003363230193D656002300E501A3009500DF
:102F380023011501A301850023020501A302D50180
:102F480023037500A303E5002304F501A304C500CA
:102F58002305F500A30565002306D5001305D50054
:102F680093850502E39EA2F00324C1028324810213
:102F78000329410283290102032AC101832A81010D
:102F8800032B4101832B0101032CC1001301010311
:102F980067800000B72E0000138F051A938EFEFF7E
:102FA800371E000083C705009385D5001305050269
:102FB8002320F5FE03C345FF131383003363F30097
:102FC8003373D301232065FE03C745FF33036E40E7
:102FD800135757002322E5FE83C755FF9397370001
:102FE800B3E7E7002322F5FE83C865FF9398B8008E
:102FF800B3E8F800B3F8D801232215FF83C765FFAB
:10300800B3081E4193D727002324F5FE03C875FF94
:10301800131868003368F8003378D801232405FFB3
:1030280083C775FF33080E4193D777002326F5FE33
:1030380003C785FF131717003367F7002326E5FE3C
:1030480083C795FF93979700B3E7E700B3F7D701D6
:103058002326F5FE03C795FF3306FE409357470026
:103068002328F5FE03C7A5FF131747003367F700AA
:103078002328E5FE83C7B5FF9397C700B3E7E700AA
:10308800B3F7D7012328F5FE03C7B5FFB306FE4003
:1030980013571700232AE5FE83C7C5FF93977700C8
:1030A800B3E7E700B3F7D701232AF5FE83CFC5FFBF
:1030B8003307FE4093D76F00232CF5FE83CFD5FF4F
:1030C800939F2F00B3EFFF00232CF5FF83C7E5FF85
:1030D8009397A700B3E7F701B3F7D701232CF5FEC1
:1030E80083C2E5FFB307FE4093D23200232E55FE7C
:1030F80083CFF5FF232215FF232065FE93985F00F9
:10310800B3E85800B3081E41232405FF2326C5FE53
:103118002328D5FE232AE5FE232CF5FE232E15FFB2
:10312800E312BFE867800000930305243708020014
:1031380003A6050083A6450003A7850083A7C5004D
:103148003306C840B306D8403307E840B307F84011
:10315800939E67009392260013D3E600931F4700BF
:103168009358C700135E0601B3E8D801135F8600C1
:1031780093DE2700336E5E0093D666003363F30157
:103188001357470093D7A7002300C500A300E50104
:103198002301C501A301D50023026500A302E500B0
:1031A80023031501A303D5012304F5001305950096
:1031B80093850501E39EA3F66780000037030400AA
:1031C800138E05241303F3FFB708020083C7050015
:1031D80093859500130505012328F5FE03C785FF90
:1031E800131787003367F7002328E5FE83C795FF89
:1031F80093970701B3E7E700B3F767002328F5FEC5
:1032080003C795FFB386F84093572700232AF5FE96
:1032180003C7A5FF131767003367F700232AE5FEE6
:1032280083C7B5FF9397E700B3E7E700B3F76700F5
:10323800232AF5FE03C6B5FF3387F84093574600A7
:10324800232CF5FE03C6C5FF131646003366F600A9
:10325800232CC5FE83C7D5FF9397C700B3E7C700E4
:10326800B3F76700232CF5FE03C6D5FFB387F840F4
:1032780013566600232EC5FE03C8E5FF1318280061
:103288003368C800232E05FF03C6F5FF232AE5FE91
:103298002328D5FE1317A600336707013387E840B4
:1032A800232CF5FE232EE5FEE392C5F3678000008C
:1032B800130101C723248138130405001305810075
:1032C80023261138EF408003130681001305810D72
:1032D80093055000EF3080599305810D13050400C4
:1032E800EFF0DFED8320C138032481381301013961
:1032F800678000009306050C83C7050093850501C8
:1033080013053500A30EF5FE03A745FF1317670045
:10331800B3E7E700A30EF5FE83A745FF93D7274041
:1033280093F7F70F230FF5FE03A785FF1317470041
:10333800B3E7E700230FF5FE83A785FF93D7474040
:1033480093F7F70FA30FF5FE03A7C5FF1317270081
:10335800B3E7E700A30FF5FEE310D5FA6780000096
:10336800130101FE232A310123229101232E91000A
:10337800232C2101232841012326610123247101E3
:1033880093090000930C0008175600001306064323
:103398009306F00F13870C0093040000938919001B
:1033A8009397290013890400B307F600B384E40057
:1033B80003AA0700637699049302090093922200F6
:1033C800B302550003AB0200330399011313230022
:1033D80033036500832B0300130000001300000073
:1033E8001300000033AB4B6123A0620113000000FF
:1033F8002320730113091900E36099FCB304E90061
:10340800E3FE96F893DC1C00E3960CF88324C101D4
:103418000329810183294101032A0101032BC100EA
:10342800832B8100832C4100130101026780000077
:10343800130101FE232A310123229101232E910039
:10344800232C210123284101232661012324710112
:1034580093090010930C1000175600001306063647
:103468009306F00F13870C00930400009389F9FF6B
:1034780093972900B307F60003AA070013890400ED
:10348800B384E400330A4041637699049302090047
:1034980093922200B302550003AB02003303990153
:1034A8001313230033036500832B0300130000006C
:1034B800130000001300000033AB4B7123A062011E
:1034C800130000002320730113091900E36099FC1D
:1034D800B304E900E3FC96F8939C1C00E3F496F926
:1034E800B7677F0013090000938717021307F00FCF
:1034F8009302090093922200B302550003AB020025
:10350800930B0000130000001300000013000000DC
:1035180033ABFB70130000001300000023A07201FE
:1035280013091900E37627FD8324C10103298101CA
:1035380083294101032A0101032BC100832B810048
:10354800832C4100130101026780000037278003A4
:10355800130717003307E5021358F741135667019D
:103568009317A8009316A700B306D740B367F600D1
:10357800B307F8403336D700B387C7409397D700CF
:103588001396D60093D636013307E640B3E7F60024
:103598003336E600B3870741B387C7403305A70032
:1035A8003335E500B387B7003305F50067800000C1
:1035B800B7074000B307F500372780FF1307F7FF69
:1035C80093D77741B387E7023385A7006780000068
:1035D80037E77F009357F54113071700B3F7E70064
:1035E8003385A70067800000B7074000B307F500E0
:1035F800372780FF1307F7FF93D77741B387E70291
:1036080037E77F00130717003305F5009357F54197
:10361800B3F7E7003385A70067800000B7170000FD
:103628009387F7FFB387F50037E7FFFF33F7E70026
:10363800B385E5402320B50013D5D7406780000047
:103648009387F507373700001307B7C093D777403C
:10365800B387E70237078000930605001305B00219
:10366800B387E70093D787413305F5401355F541F4
:103678001345F5FF3375F500B727FDFF93870780DE
:10368800B307F50237E77F0013071700B385B700C4
:10369800B7F73F00B387B74093D7F741B3F7E700D1
:1036A800B385F54023A0B60067800000B777010016
:1036B80093870740B7F60200B307F50093860680A4
:1036C8001307050063E0F602B797FEFF938707C06C
:1036D800130500006304F700678000003335B0006D
:1036E8006780000013051000678000009307F50746
:1036F800373700001307B7C093D77740B387E7027F
:10370800370780001306B00293060500B387E70069
:1037180093D787413307F6401357F7411347F7FF0D
:1037280033F5E70063820504B727FDFF9387078019
:10373800B307F50237F73F00B387D7003307F740E1
:10374800B7E67F001357F741938616003377D70003
:103758006358F7006300C502130515006780000071
:10376800631605001305B002678000001305F5FF16
:1037780067800000130500006780000093071000B1
:1037880063EAC504B387C702B3D6F502E3FCC6FEF5
:10379800638E0702930890006F008000B3D6F5028D
:1037A80013F7F60F1308770313070703130515001C
:1037B8001377F70FB3F5F502B3C7C70263D4D80080
:1037C8001377F80FA30FE5FEE39A07FC2300050023
:1037D80067800000938605006FF0DFFB1758000034
:1037E8001308087193079000832808003386A540C2
:1037F80063F0A724930710009306900013972700FF
:10380800B307F700939717003357F502E3E8E6FE8E
:10381800930EA000130E90003353F50293881800FE
:103828009376F30F138776033375F50293860603B1
:103838001377F70FB3C7D70363446E0013F7F60F78
:10384800A38FE8FEE39A07FC238008001305000213
:103858009756000093864666371700E08327C7020D
:1038680093F70701E39C07FE938616002328A70217
:1038780003C50600E31405FE175500001305856A05
:103888008346050093080500371700E063800602A9
:103898008327C70293F70701E39C07FE9388180064
:1038A8002328D70283C60800E39406FE1307900076
:1038B800832808009307100093069000637CB700E4
:1038C80013972700B307F7009397170033D7F5022C
:1038D800E3E8E6FE930EA000130E900033D3F50242
:1038E800938818009376F30F13877603B3F5F502E0
:1038F800938606031377F70FB3C7D70363446E00A5
:1039080013F7F60FA38FE8FEE39A07FC238008005D
:1039180093050002975600009386065B371700E070
:103928008327C70293F70701E39C07FE93861600D7
:103938002328B70283C50600E39405FE83460500E5
:10394800975500009385055E371700E063800602EF
:103958008327C70293F70701E39C07FE93851500A9
:103968002328D70283C60500E39406FE13079000B8
:10397800832508009307100093069000637CC70016
:1039880013972700B307F700939717003357F602EA
:10399800E3E8E6FE1303A000930890003358F6020C
:1039A800938515009376F80F138776033376F6021E
:1039B800938606031377F70FB3C7670263C408013A
:1039C80013F7F60FA38FE5FEE39A07FC23800500A3
:1039D800130600029756000093860650371700E03A
:1039E8008327C70293F70701E39C07FE9386160017
:1039F8002328C70203C60600E31406FE8346050013
:103A08001756000013060652371700E063800602B7
:103A18008327C70293F70701E39C07FE13061600E6
:103A28002328D70283460600E39406FE6780000039
:103A3800930710006FF0DFDD1307C5028327070027
:103A480093F70701E39C07FE2328B502678000006F
:103A58008346050063820602371700E08327C70202
:103A680093F70701E39C07FE130515002328D702E7
:103A780083460500E39406FE67800000B71700E060
:103A88001307300023A0E7006780000083270500A4
:103A9800130101E8232A21172328F10A8327450067
:103AA8002328311723245117232AF10A8327850055
:103AB80023226117232071172328F1008327C500CB
:103AC800232E8115232C9115232CF10A8327050118
:103AD800232AA1152328B115232EF10A832745018E
:103AE800232E8116232C91162320F10C8327850180
:103AF800232641172322F10C8327C5012324F10C27
:103B0800832705022326F10C832745022328F10C7D
:103B180083278502832D0503832C0506232AF10CB0
:103B28008327C502032C4506232CF10C8327450364
:103B3800232AF10083278503232EF1008327C50359
:103B48002320F10283270504232EF10C8327450443
:103B58002320F10E83278504232CF1008327C50435
:103B68002322F102832705052324F1028327450533
:103B78002326F102832785052322F10E8327C50515
:103B88002324F10E832785062328F1028327C506FF
:103B9800232AF10283270507032B050983294509F1
:103BA8002326F10E83274507930B0B00138D09007D
:103BB8002328F10E83278507130B0C00232AF10E07
:103BC8008327C507232CF10E83270508232CF10230
:103BD80083274508232EF10283278508232EF10425
:103BE8008327C5082320F106832785092320F104AC
:103BF8008327C5092322F1048327050A2324F10416
:103C08008327450A2326F1048327850A2326F106FC
:103C18008327C50A2328F1068327050B2328F104E7
:103C28008327450B0329050C832A450C232AF10415
:103C38008327850B232EB10F2326A1142322F106F7
:103C48008327C50B930D090013890C002324F10663
:103C580097570000938787F62326F1008327010BE7
:103C68000327410D8326410B0323C10B032EC101FA
:103C7800832E010C032F01028323410C0324C10D61
:103C88000326810D032501010328810B83284101A7
:103C9800032CC10C832C81018322C102B3C5E70028
:103CA8000327C10F8324810C8329010E832F8102EE
:103CB800B347C30133C6C60033CEEE0133C3830016
:103CC800832E010D032F41020324810E8323410E0D
:103CD800B346E50033465600334718018322C10333
:103CE80033489C01832C010F032CC10EB3C8340147
:103CF80033C5EE018324010383294103832E410F39
:103D0800032F810FB3C5F501B3C67600832F810356
:103D1800334787008323C1050324010633459501F2
:103D280033475700832CC10483224105334E6E016B
:103D3800334E8E00B3C5D5013346E601832EC10646
:103D4800032F01073346960133488801B34C5E00C0
:103D5800032C8104032E410633439300B3C6F601B6
:103D680083240104832F01053347E701B3C6D60135
:103D780033437301B3C72701B3C58501131A17006D
:103D8800334CC301B3C83801032381068329410496
:103D9800B3C7770013D4F601B3C7F70133644401FE
:103DA80033489800139A16009354F701B3C8A80132
:103DB800B3E4440193D2F701139A1C00B3E2420121
:103DC8003345350113DAFC01B3C968009393170032
:103DD800B3637A00135FFC01139A19003348B801E2
:103DE80033455501931F1C00336F4F0113DAF90156
:103DF800B36FFA01131E1500135AF801935EF5010B
:103E0800336ECA01131A1800931816001353F601DB
:103E1800B3EE4E0133C6C20013DAF5018322410125
:103E2800B3681A01B3C83801B3495600B3C2580180
:103E3800832A410CB3CEFE00334E9E01139A15001F
:103E4800938C0E00B3C5B300B3C37E01B3CE5E013D
:103E5800832A810C334FEF003363430133438301DB
:103E680033C80401130C0F00B3446F01334F5E01D4
:103E7800832A8101B3C6DF00832B8102B34FB301CC
:103E8800930D030033435301832A41023345A400B1
:103E98003344AE01130D0E0033CE5801930A0800C7
:103EA80033487801832BC102232C1101130B050021
:103EB800B3487501832B81030327C10F938705003E
:103EC80033C57501232CA10403250101832BC103EC
:103ED800232AF106B3C7A7000325810B33CAE500DF
:103EE80013070600B345760133C92601938B0600F4
:103EF800232CE106832601053347A7000325C101CA
:103F080033C6DB00232E7107B3CBAB0083264105F4
:103F18002326710B03250102232291092324A109D9
:103F2800B34BAC0003250103232C710B2326B109E5
:103F3800B3CCAC0003254103832B81012328510115
:103F4800334DAD00032501042324A10D2322910D37
:103F5800B3CDAD0003254104939CB400232EB10FCB
:103F680033C5AB002320A11003258104935D4A01CA
:103F780093D45401B3CAAA000325C10423225111C2
:103F8800832AC1003345AB002324A11003A50A00EE
:103F980003AD4A00232081092328A1081395C900ED
:103FA800232EA100135559011319B900232A6101C1
:103FB800232EA1092320B103232291032324A10244
:103FC800232621031395D5002328910293D4B30007
:103FD800232A91022326A104032581059314540161
:103FE800232C9102B346DC00935435012328910415
:103FF8009394D601232A91049354360013D9F701D8
:10400800232C9104931417002320210B2322910AB7
:104018000329C10183240102131ACA0093D9490153
:1040280033699900B3693A0183244102032A810262
:10403800232A21090329C10233EA44018324010305
:10404800232E4101032A4103B364990023209102DE
:104058008324810313DC2F01232E8103336A9A0002
:104068008324C10313DD4E00931CCF01135CC300EE
:10407800931B4E01135F4F00135ECE00939ECE013B
:1040880013134301939DE200135BD801939A380000
:10409800B36EDF0133636E009393530193D2220111
:1040A80093D8D8011354B400939FEF001318380025
:1040B80033647400B3EFF201B3E3B401B3629D015A
:1040C80033E80801232AD103232E6102B36E7C0151
:1040D80033635B01232C310923244103232281020A
:1040E800232871022326F103232C51022320D10512
:1040F80023246104232201050328C104832F010519
:10410800832481051316D601B36FF80103284105EE
:1041180093D63600B366D600B36298008324410A6A
:104128000328010A93D535011315D5003366980085
:10413800032F0101032B4101832DC1080329C10C61
:104148003365B5002324C10A8325410D0326810D5B
:104158001357F701939717003364F700334ECB00DA
:1041680033C72D01B347BF00032381010329010D84
:10417800032641078325410E232CD104B34623018E
:10418800334CB6000329810E832581072328A10417
:104198000325C107B3CB25010329C105032801085D
:1041A8008328410833432501032901062326F10505
:1041B800232A5104B34C2801032941062322810AEA
:1041C8002326C11133CD2801032E81080329810636
:1041D8000326810B8322810CB34D2E01131A66002E
:1041E8000329C10A935EA6010326410C832F010B04
:1041F80093D4720023209106131E69009359760008
:1042080093189601935AA9010326C10F1399920195
:1042180083220110B34FFF01B3EA4A01130F0B00C9
:10422800032A0106032B410B13D8820113158600BC
:10423800334F6F0133E92901032BC10BB3691A010D
:10424800336AA8000325C10703280108935486018F
:1042580033456501032B010C13948200B3E88400F5
:104268003348680123241107032BC10D8328410813
:104278000326411083258110B3EECE0123260113B6
:10428800032E810833C86801032B010E9353E600FF
:10429800939225011316260193D5E50033446E0148
:1042A80033E6C500232E51052326210B2320310791
:1042B800232241072328C10A2324A11223280113FA
:1042C8000325C108232A8112032BC10E83288101EB
:1042D80083250101B34A6501032B010F03258109D9
:1042E800032EC10133CA68018328410F83240102C8
:1042F800B3E25300B3C91501832541018328810F17
:10430800832341021348F5FF33C91501832541076B
:104318008328C1061345FEFF032E0103B3C8150108
:1043280023221109832581078328010713CBF3FF73
:104338008323810233C6150183254109232461099A
:1043480013C4F3FF93C8F5FF93C5F4FF8324C10298
:10435800832301042326810813CBF4FF9344FEFF33
:10436800032E81042320610B13C4F3FF134BFEFFBC
:10437800032EC104232CC112232A910A232C810A5B
:10438800232E610B1344FEFF8324C10383234104BE
:104398002320810C032E010593C4F4FF93C3F3FF7C
:1043A800134BFEFF032E41052322610D1344FEFF2C
:1043B800032E81052324810C134BFEFF032E41039A
:1043C8002326610D1344FEFF032E81032328810C4D
:1043D800134BFEFF032E410A232A610D139BB601DE
:1043E8001344FEFF032E810A232C810C232861012C
:1043F8001344FEFF032EC1102322811293D65600C8
:1044080013164E00232AC10013D6C701232CC1005E
:1044180013566C012326C1061396AB002328C10648
:1044280003260101135457001317B7013364C4005E
:1044380033E7E6000326410123288100130407001F
:10444800032781018326010793DB6B013367E600AD
:104458000326C10693974700135BCE01232A7107F1
:10446800931BAC00135C130133EB6701B366D600F2
:10447800232C8107139CFC00232E8107232AE100AB
:10448800232C61012328D1060326410713DC1C01D4
:10449800139E8D01931CF30013538D008327C107CE
:1044A80003270102B36B7601B36C9C0103268107D5
:1044B800336C6E0003230109B376E800B367F60096
:1044C8000328C1023346F30103238108131D8D011C
:1044D80093DD8D00B36DBD01032DC109232A91071A
:1044E800B37C03010323C108032801032324D10E4D
:1044F80083264102334DED01032EC1012320A10F74
:10450800337D03010323010A232E8107337CD50061
:1045180083268102B3F8C8013373F3012322110FF4
:10452800232E610EB3F8D5000323410B2328110F66
:10453800832841043373E3018325810B2326710704
:10454800232CF1062320B109232EC10C2326810F29
:10455800232A910F232CA10F23206110B3F41401F7
:10456800832881041343FFFF832B010533FF1501C3
:104578008325C10B032C4105832C810533F5750177
:104588008325010C13CEFFFF83284103B3FF850168
:104598008325410C2322E111032FC10433F7950130
:1045A8008325810CB3F3E301032FC103B3F715018E
:1045B800832881038325C10C832D01062324A110A0
:1045C800B3F51501232AB1108325010D13C5FDFF8D
:1045D800832DC10AB3F5E501232CB110032F010483
:1045E8008325410D2328F11083274106B3F5E50102
:1045F800232EB11093C5FDFF832D810D032DC10519
:104608002326E11033FFDD01832D411213C7F7FF85
:104618002320E112B3FDAD01032781060326010B18
:104628002322B113032BC112832C8112832B411334
:10463800931DEB01135C2B00032B01132326810927
:104648001348FDFF135C9B0013DD2C00131B7B013B
:10465800939CEC01232491092328610933EDAD01D2
:1046680013DB9B00832D8108232E61092320A10DD4
:1046780013DB9A01032DC108939A7A002320510B6A
:10468800935A9A01232A510B931A990013597901C5
:10469800232E210B33EDAD01032941089346F7FF83
:1046A800939C7B011347F6FF931B7A000326811323
:1046B800B3EC8C012322A10D032C410B33ED6B01CC
:1046C800032B010A13DA790193999900232C310BF2
:1046D800B3EA4A019359E901131926001356E60172
:1046E800336B8B01832D0109032CC10B232CC10CC7
:1046F8002324910D03264108832CC1092322510943
:10470800832A810BB3ED9D0133E92901B3EA8A01BC
:104718002326B10D2328A10D232A610D2324510935
:10472800232821098329810D131626000329410E08
:10473800B3E9C9000326C10D23263109832981095C
:1047480033462601232EC1080329810E0326010EB4
:10475800032AC101832BC10F334626012320C10A36
:10476800032941090326C10E032B4102832A810F25
:1047780033462601232AC1080326010F33CB6B01D8
:104788002322610333463601232CC1080326410F37
:10479800032B4103832B011033464601032A0102F0
:1047A800B3C46401232A9102B3CA4A01032A8102CD
:1047B80083244110232EC10033CA4B012324410313
:1047C800032A81032320510333733301B3C4440103
:1047D800032AC103232C910293C8FEFF33CA430165
:1047E800232E410383230104032B8110832B01050E
:1047F800032C4105B3437B00232071048323410428
:10480800832C81050326010BB3C37F002322710487
:10481800832F81048323C110032A4106334FCF001D
:10482800B3CFF3012324F10583230111832FC1049E
:1048380083290106232AE10BB3CFF3018323411116
:10484800032F810633754501B3CB73012328710506
:10485800832B81113345D5018323C10A33CC8B01C6
:10486800832BC1112326F105232A8105B3CC9B0193
:10487800832B4112832F410A232C9105B3CB5B0074
:10488800232C710B337E2E01B3F838010329410123
:1048980083290112B3F5E501032F810A032B810156
:1048A800032AC107832401082326A10A0325C10579
:1048B800B3F65600934AFAFFB3C5A50013CAF4FF2E
:1048C8008324C10233C57600232EB1048326410612
:1048D8008325010633F6C9003377F701334E9E006E
:1048E800032CC106B345B600B346D7002326C1033F
:1048F80003278106032E01030326C10693C7F2FF8F
:1049080033787800832281072320B1068325410765
:10491800B3F7E7013348E801832B010783294107EF
:104928003343C301B3C8F801934DF9FF934CFCFF1F
:104938002324010B33C8E70083240108032741011E
:10494800B3FDCD00134DFBFF0326010713CBF2FF88
:1049580023286102832201012322110B2328A10AA3
:10496800232401070325C107B3FCBC00232E810AB9
:10497800832581072322D106832681010328810C00
:10498800032F8108832FC10813CCFBFF93CBF9FFBA
:104998008328C10C032E410D832E41088327C109AA
:1049A800B3FBAB00337B9B0013C5FFFF9344F8FFB9
:1049B800832F01091348FFFF032F4103337CBC00F9
:1049C800B3FA8A00337A5A009349F4FF13C9F2FF05
:1049D80013C4F8FF9342FEFF93C8FEFF032E410C59
:1049E800832E010A93C5FFFFB3CFE701032F81038D
:1049F8000323010D83274109B3F9E9003379D9006D
:104A0800032701049346FEFF33CFEE01032E8109ED
:104A1800832EC1039343F3FF334EEE000323010CAF
:104A280003274104B3CED7018327C101337DCD00CD
:104A38001346F3FF33C3E7008327810403270102EA
:104A4800232C210D0329C1043347F7008327410292
:104A5800232E710C83230105B3C727010329810283
:104A6800B34379002320710E0329410B83234105A9
:104A7800B3C323012322710E0329810B83238105EC
:104A8800B3C323010329C10B2324710EB3C32D0122
:104A980003294101832D0101232E710AB3CC2C0176
:104AA80003298101334DBD018323C10DB34D2C0171
:104AB800032CC10603298107232CB10133CC8B01B8
:104AC800832B0107832D01082328A101B34B7B0108
:104AD800032B4107032D010D232A910133CB6A01D2
:104AE800B34A2A01032AC1070329810D232A610732
:104AF80033CB4901032AC10883298108B34DB90181
:104B0800B3F8480103294108032A0109232681072C
:104B1800232C6107232EB107032B010C832D410D94
:104B2800B3F232012328110D23287107832B410C7E
:104B38008329410A33784801032AC105B3CF3F01CD
:104B48008329810A832CC10C334E4E01334F3F0118
:104B58008329C10A032A010BB3C29201B3CE3E01D5
:104B680083290106B3F3230133474701032941068B
:104B7800032A010E334333012320510C8329810674
:104B8800B342B8010328410833756501B3C727014B
:104B98003348050133493A0103258108032A410EA8
:104BA8008329C102032C810CB3F575018328810E7A
:104BB800B3493A0133C5A500032A01038325C10877
:104BC8003376860133CA48013346B6008328010D7F
:104BD8002324C108032601093374B4013344740142
:104BE800B3F69601B3CB8301B3C8A801B3CDC60011
:104BF800832C41018326C10B0326010183258101F2
:104C0800032CC1062322110D2324510C2322010950
:104C180023207109832B01070328C107B3F4A401DA
:104C2800B3C46401032B4107130D0500B3420A0105
:104C38000325810703284108B3CFDF00334FCF0096
:104C4800832601080326010CB3C76701B3C3A90073
:104C5800B3CE9E01B3C90701334EBE008327810836
:104C6800B3CEDE00334ECE008325810C3349590183
:104C7800334F8F003349A9018328410C2328810829
:104C88002326A10D13D4FE01131D1E00B3CF9F00D0
:104C9800B3C3F300B3C2B201334777013364A4014D
:104CA80023269108139D1E009354FE01334AB70032
:104CB800B3E4A4013343830113DDF3019395120098
:104CC80033431301135BF90193981900B365BD00D1
:104CD80013DDF201B342540003240106131C130030
:104CE8001357FA01B3681B01B3C8D80193DBF90164
:104CF8001318190013951300336787013347F70119
:104D0800931C1A009357F30113961F0033E80B0105
:104D18003365AD00B34B140113DDFF010324010B10
:104D2800832F0104B3E79701B3C7E7013348C801EC
:104D380093161F00B3C5450133CCFF00334B040164
:104D4800832F4105032AC10303244107B366DD000D
:104D5800135DFF013366CD003345650033463601E8
:104D6800B34CEA00334AA40033C4CF00832F810533
:104D7800B3C62601032F4102B3C37400B3C4DF00D6
:104D8800832F410A032381083349AF00032E810191
:104D9800032F8102B3CE7F00832F810A334DC300D6
:104DA80003234109B349BF00334FFE00032E410CD2
:104DB800B3CF5F003343E300232AD105232CF10549
:104DC800B34E1E01832F4101032E810C232A610655
:104DD80003238109334E0E01B3CABA003343F300EB
:104DE8002324610803234104B3CDDD00B3CFEF00D2
:104DF80033431301232A6108032381043343030146
:104E0800232C6108032341063343A3002322610AAC
:104E1800032381063343B3002324610A0323810754
:104E28003343C3002328610A0323C1073343D30054
:104E38002322610C0323C108334373002324610C2C
:104E48000323010933435300232C610C0323C102BC
:104E58003343C300232E610C032301033343D300E0
:104E68002320610E03234103334373002322610E81
:104E780003238103334353002324610E0323C10A10
:104E88003343E3002326610E0323C1053343F300B4
:104E98002328610E0323C10633431301232A610E1D
:104EA8000323010733430301232C610E0323410825
:104EB8003343A300232461100323C10C3343B300FD
:104EC800232261100323C101B34813010323010204
:104ED800334803010323C1043345A3000323010519
:104EE800B345B3000323410B3346C3000323810BAF
:104EF800B346D3000323C10B334373002322611449
:104F080003230101334353002320611403230108C1
:104F18003347E3000323010C2324E1143347F30050
:104F28008327C10003A3870083A7C7002328610C38
:104F3800232AF10C9317CC002328F10093D74C01B6
:104F4800232AF1009317BB00232CF10093D75B01B0
:104F5800232EF1009357BA002320F10293975A01A8
:104F68002322F10293572D012324F1029397ED0098
:104F78001393C9012326F102935749002328F1020C
:104F8800232A6102139344019357C400232E61021C
:104F980003234105232CF1028327810513144401BF
:104FA800232081041354D30123228104139437004E
:104FB8002324810413D4D70183274107232681049E
:104FC800131433002328810413D3F7011314DF00CB
:104FD800232A81042324610613D43F010323810873
:104FE80093971700232C81042328F1061314DE015C
:104FF80083274109135E3E00232E81042322C10723
:1050080013D43E00032E81092320810613141300B4
:105018002326810613D4A701232A810613146E00C0
:10502800232C81061354AE01232E81060324410A42
:10503800939767002320F108935774002322F108FF
:105048008327810A939CCC00135C4C01139E970123
:105058002324C10913DE77002326C109131E9401F6
:105068002328C1090324010B8327410C33EC8C014D
:10507800135E8401232AC109139E8700232CC109CA
:1050880013DE87012322C10B131E84000324810C25
:105098008327810D2324C10B135EE4002326C10B53
:1050A800139E27012328C10B13DEE700232AC10B17
:1050B800131E24010324C10D8327010E232CC10BC9
:1050C800135E5400232EC10B139EB7012320C10D7C
:1050D80013DE57008327810E2322C10D131EB4014E
:1050E8000324410E2324C10D139E47002326C10D1E
:1050F800135EC40113144400232E810C0324C10E33
:1051080093D7C7012320F10E935764012322F10E90
:105118008327010F232CC10D135B5B01139EA7008E
:1051280093D767012326F10E9317A4000324410F98
:105138002328F10E2324C10F93571401232AF10EBB
:105148008327810F1314F40023208110139EF70086
:1051580093D71701232EF10E83274110232CC10F5B
:10516800939BBB0013948701232281100324811091
:1051780093D787002328F110135E840093D7280063
:10518800131484019398E80123268110232E11110A
:105198001314E80193589500135828001315750146
:1051A800232001132326A112139875010325011446
:1051B80093D595002328B11293957600232AB1122E
:1051C8009355960113167600232EC11213169500D7
:1051D8002320C1140326411423241113232CB112B4
:1051E80093587601931596001356750113152700E9
:1051F8001357E7012322E1140327C109232A811049
:1052080003248114B34377000327010A232CF110E8
:1052180023220113B34257001358E4010327010165
:1052280093172400032441012324C111B3EB6B011C
:10523800336787002328E10003248101832CC101FF
:10524800032B410293DABA00B36C940103240102E0
:10525800131A5A0133EA4A01336B6401832AC102E3
:105268000324810293DD2D01131DED00B36A54015F
:10527800232A510103240103B3EAAD01032D41039D
:1052880093D949001319C901336DA40133E92901E0
:10529800032481038329C10393D4C400232EA101CD
:1052A800B3693401032401042320310383298104D1
:1052B80033E4840083244104032D8105939FDF0098
:1052C800B3E4340123249102832901058324C10412
:1052D800135F3F0133EFEF01B3E434018329410544
:1052E800832FC105032E4106B3E9A901032D010649
:1052F800939EDE0133EECE01B3EFAF01832E81061C
:105308002328F103832FC1061353F301232C210112
:10531800B3EEFE01832F01072322910223263103D6
:105328003363F301232AC103232ED103232C610203
:10533800032D8107832F410703290108032E8108C4
:10534800B3EFAF01032DC107832DC108832E810957
:10535800336D2D01032941080327010B2322F10591
:105368003369C901032E0109832FC10B8324410C22
:10537800B3EDCD01032E41098329C10C2320A105DA
:105388003363DE01832E810A032E410A2326210579
:105398002324B105336EDE01832EC10A2328C105FB
:1053A800032E810BB3EEEE000327410B232A610481
:1053B800232ED1053367C701032E010C232CE104EA
:1053C80093D69601B3EFCF01032E810C2322F10768
:1053D800B3E5C500B3E4C401032E810D2320910673
:1053E8003366A800B3E9C901232431070329010E54
:1053F800032DC10D032E810E832E010F336D2D0158
:105408000329410E832D0110032781103369C90137
:10541800032EC10E832F0111832481113363DE0112
:10542800832E810F032E410F832901122326A10702
:10543800336EDE01832EC10F032D8112232A21072B
:10544800B3EEBE01832D4110032901132328610601
:10545800B3EDED000327C110232EC107232CD1077C
:105468003367F701832F41112320B1092322E10873
:10547800B3EF9F008324C1112324F109B3E434015D
:1054880083294112232691089344F4FFB3E9A90123
:10549800032DC1122328310993C9F3FF336D2D0160
:1054A800232AA109032E8113032941130327411439
:1054B800032381023369C901032EC1133365F70041
:1054C800832EC102B366DE00232ED1088326011481
:1054D800032E4102032841032324A10A03250103C3
:1054E800B3E816019347FBFF232C2109232A510A0D
:1054F80013C9F2FF9342F3FF032701012320110B85
:105508002322B10A832801022326C10A232C810BF6
:1055180003264101232E910B2320710D2322410DD7
:105528002324610D2322F10E2326510D2328710A0D
:10553800232E810C9343FEFF2324510E93CFFEFFAD
:105548002320E10F934EF5FF134EF8FF0328810146
:105558000325C101032BC105832641048327410587
:105568009342FBFF032B81032326510E934DF7FF34
:105578009342FBFF032BC1032328510E0327C104C9
:105588009342FBFF032B8106232A510E134DFCFF88
:105598009342FBFF032BC106232C510E13CCFBFFB8
:1055A8009342FBFF032B0107232E510E934BFAFF67
:1055B8009342FBFF032B410723225110134AF6FFA6
:1055C8009342FBFF032B8107232451100326010478
:1055D8009342FBFF032BC107232651108325810427
:1055E8009342FBFF032B01082328511013C4F8FF33
:1055F8009342FBFF032B4108232A51101343F8FF62
:105608009342FBFF032B0106232C51109348F5FF0F
:105618009342FBFF1348F6FF13C5F6FF1346F7FF47
:105628008326010513C7F7FF232E51108327810511
:10563800032B410693CCFCFF93CAFAFF9342FBFF6E
:10564800032B010923205112134FFFFF9342FBFF45
:10565800032B41092322511293C5F5FF9342FBFF07
:10566800032B81092324511293C6F6FF9342FBFFB3
:10567800032BC1092326511293C7F7FF9342FBFF5F
:10568800032B010A232851129342FBFF032B410AE3
:10569800232A51129342FBFF032B810A232C511218
:1056A8009342FBFF032BC10A232E51129342FBFFA7
:1056B800032B8108232051149342FBFF032BC108BD
:1056C800232251149342FBFF23245114032B010B73
:1056D8008322010DB3C262012328510C032B410B15
:1056E8008322410DB3C26201032BC10B232A510C43
:1056F80033FB6D01232C610D032B010C832D410C11
:10570800337D6D01032B810CB3FCBC01832D410E4D
:10571800337C6C01032BC10C8322810EB3FB6B011C
:10572800032B410133FB6D01832D010BB3FABA0141
:10573800832D410B337ABA01832D0101B3F9B901E5
:10574800832D810B3379B901832D4102B3F4B40160
:10575800832D81023374B401832DC102B3F3B301E5
:10576800832D010E2322710E8323C10EB3F2B201E1
:10577800832D0103B3FFBF01832D4103337FBF0195
:10578800832D8101B3FEBE01832DC101337EBE018D
:10579800832DC10D3373B301832D0102B3F8B80112
:1057A800832D81043378B801832DC1043375B50185
:1057B800832D0105B3F5B501832D41053376B60177
:1057C800832D8105B3F6B601832DC1053377B70163
:1057D800832D8103B3F7B701832DC103B3F3B3015D
:1057E8002326710E832D01048323010FB3F3B30124
:1057F8002328710E8323410F832D4104B3F3B30192
:10580800232A710E832D01078323810FB3F3B3017C
:10581800232C710E832D41078323C10FB3F3B301EA
:1058280023207110832D810783234110B3F3B30123
:1058380023227110832DC10783238110B3F3B30191
:1058480023247110832D01088323C110B3F3B301FE
:1058580023267110832D410883230111B3F3B3016B
:1058680023287110832D010683234111B3F3B3015B
:10587800232A7110832D410683238111B3F3B301C9
:10588800232C7110832D81068323C111B3F3B30137
:10589800232E7110832DC10683230112B3F3B301A4
:1058A8002320711283234112832D8109B3F3B3019D
:1058B80023227112832DC10983238112B3F3B3010B
:1058C80023247112832D010A8323C112B3F3B30178
:1058D80023267112832D410A83230113B3F3B301E5
:1058E80023287112832D810A83234113B3F3B30153
:1058F800232A7112832DC10A83238113B3F3B301C1
:10590800232C7112832D81088323C113B3F3B301B0
:10591800232E7112832DC10883230114B3F3B3011D
:1059280023207114832D010983234114B3F3B30198
:1059380023227114832D410983238114B3F3B30106
:10594800832DC10023247114938D0D012326B101E9
:105958008323010D832D810DB3C3B3012328710A5D
:105968008323410D832D010133CDA301232AA10BEC
:1059780033CDBC01832D810B832CC10B8323410EB6
:10598800334CBC01232C810B33CC9B01832B010CA2
:10599800832D410C2328A101B34B7B01032B810CE0
:1059A8002320710DB3CBBA01832AC10C334A6A0193
:1059B800032B4101B3C959012326310DB3496901AC
:1059C80003298101832DC1012322710DB3C4240150
:1059D800232A910CB344B4010324C10D832D010281
:1059E800232E810BB3C3830033C4B2018322410247
:1059F8002324410D2328310DB3CF5F00232EF1015D
:105A0800232C910C232E710E232A8100832D8102D1
:105A1800B34FBF01832DC1022320F103B3CEBE01D2
:105A2800832D010E232ED10D334EBE01832D01038C
:105A38002320C10F3343B301832D4103232C61007D
:105A480033C3B80183288103832DC1032322610254
:105A580033481801232401033348B5010325010401
:105A6800832D41042326010333C5A5008325810422
:105A78003346B601832DC10433C9B6008326010518
:105A88002324C10E334BB70133C6D700832D4105FC
:105A98008326C10E832781052328C10233C6B60198
:105AA8008326010F832DC105232AC10233C6F600C0
:105AB8008326410F2326C10E2322A10E33C6B60129
:105AC8002328C10E8326810F83270106832D4106D3
