:10000000979100009381415217010300130181FF72
:08001000EF8080026F00000088
:1000180017930000130303D283260300032643002B
:10002800370E01FF93D886001358860093F8F80F0F
:100038001378F80F9398880013F7F60F13188800B1
:100048009377F60F130EFEFF33671701B3E7070127
:10005800B70EFF00B708FF00B3FED601B37816014C
:100068003377C701B3F7C701370800011308F8FF52
:10007800138F16003367D70113DE8601B3E7170124
:1000880093588601130101FEB336DF00131E8E015B
:100098003377070193988801B3F707013367C701DE
:1000A8003388C600B3E71701130681009306800062
:1000B800232E11002324E1002326F1002320E3014D
:1000C80023220301EF60806A8320C101130101022A
:1000D8006780000097970000938707C783A60700EB
:1000E80017970000130707C623A0A7008327070058
:1000F8006388050003A6050023A0F5002320C70098
:10010800138506006780000097970000938747C310
:1001180083A6070017970000130747C223A0A7006C
:10012800832707006388050003A6050023A0F500C0
:100138002320C700138506006780000097970000FA
:10014800938707C103A7070023A0A700979700007C
:100158009387C7BF23A0B7003335E000678000004E
:100168001305200067800000130101FF232481008C
:10017800232611001307B000138405006302E50E5F
:1001880093070500636CA706130740009306060053
:100198006304E510130760006316E50883A70500EC
:1001A8007326303413D7D7001377C7073387E60091
:1001B8000327070093D7C70093F7370093568700A4
:1001C800130510009375F70F93F6F60F638AA700CF
:1001D80093570701135787012301F600A301E6008F
:1001E800A300D6002300B6008320C10013054400F5
:1001F8000324810013010101678000003707008094
:1002080093067700630CD50E1307B7001385050016
:100218006396E7148320C1000324810013010101C0
:100228006780000013072000631AE5029797000013
:10023800938707B283A7070063800702032481001E
:1002480017970000130787B08320C1008326070093
:1002580013010101678007006F0000006F000000B4
:10026800979700009387C7AD83A7070063840702A9
:1002780017970000130787AC03250700E7800700DE
:100288008320C100130544000324810013010101E8
:10029800678000006F00000083A7050073263034D4
:1002A80013D7C70013773700930510006304B70806
:1002B8000345160003480600834526000347360019
:1002C8001315850033650501139605013366A600ED
:1002D800131787013367C70093D757008320C100DE
:1002E8001305440093F7C70703248100B386F6007B
:1002F80023A0E60013010101678000009797000022
:10030800938787A483A707006384070217970000D1
:10031800130747A303250700E78007008320C100D0
:100328001305040003248100130101016780000004
:100338006F0000000347160083450600374600009B
:100348001317870033F6C7003367B700E31606F8BC
:1003580013170701135707416FF01FF86FF01FF0CD
:10036800B722FFFF13010181938202F22326117E37
:100378002324817E2322917E2320217F232E317DF9
:10038800232C417D232A517D330151001306C007D8
:10039800130905009389050013054103930500001F
:1003A80037FA00003714FFFF23280102EF70903A54
:1003B8001304047893070A8AB38787001307010197
:1003C8003384E7001305040093050002EFF05FC4CF
:1003D80093060002130604001305040093050008A1
:1003E800EF60C0543795FFFF1305058093070A8A0D
:1003F800B387A700130701013385E70093050400BD
:10040800EF104051B724FFFF1385048093070A8A31
:10041800B387A70013070101130404023385E7001B
:100428001306000093050400EF1040683745FFFFEE
:1004380093070A8AB387A700130701013385E700EA
:100448001306500093050400EF10D01F93070A8A83
:1004580013070101B3879700B387E70093060A8A59
:100468003737FFFFB386E600130701013387E6003D
:10047800B716000093870780938606402324E1007F
:10048800B386D700130707C003A8070003A54700D2
:1004980083A5870003A6C700232007012322A700FE
:1004A8002324B7002326C7009387070113070701F2
:1004B800E39CD7FC37FA0000B734FFFF938404C0ED
:1004C80093070A8A13070101B3879700B384E700EB
:1004D80013850400EF1040773764FFFF130404808E
:1004E80013070A8AB795FFFF9306010133078700B0
:1004F8009385058093070A8A3304D700B387B7002A
:10050800B385D7001386040013050400EF10C04B11
:1005180013050400EF109038B747FFFF13070A8A46
:100528003307F70093070101B307F70013860700A5
:1005380093050400130504002324F100EF10102094
:1005480013050400EF10501BB777FFFF13070A8A43
:100558003307F70093070101B307F70013060400F8
:100568009385070013050400930A0A002326F10067
:10057800B714FFFFEF109044138A047893870A8A10
:1005880013070101B3874701338AE7001306040004
:1005980093050A0013050900EF00901E9384047662
:1005A80093870A8A13070101B3879700B384E7008A
:1005B80013060900138504009306007A93050002C8
:1005C800EF60C036B727FFFF9387078013870A8A33
:1005D8003307F7009307010103288100B307F700E9
:1005E8000327C1001385090093060A061386040031
:1005F80093050A00EF00D032B7E200009382020EA2
:10060800330151008320C17E0324817E8324417EEF
:100618000329017E8329C17D032A817D832A417DA7
:10062800130500001301017F67800000130101DF3B
:10063800B7D2FEFF232291202322911FB7D4FEFFB9
:10064800B73C0100232611202324812023202121C7
:10065800232E311F232C411F232A511F2328611FBA
:100668002326711F2324811F2320A11F938B04F2AB
:10067800232EB11D93870C1B33015100130801026F
:10068800B38777013734FFFFB38B07011304048066
:1006980093870C1BB387870033840701138C0440AE
:1006A80093870C1BB3878701338C0701B717FFFFAC
:1006B80013880C1B3308F80093070102B307F800EE
:1006C8002326F100138A06008326C100938A0B04AF
:1006D800138B0B0293880500130807009307040087
:1006E8001309060093050B0013860A0013070C0074
:1006F8009309050013850B00232E1101EF00904686
:10070800938404E593870C1B13070102B3879700B2
:10071800B384E70013850400EF5010561306000257
:1007280093050B0013850400EF50105813060A00B8
:100738009305090013850400EF5010571385040032
:10074800EF50105A138604009305000413850B0616
:10075800EF50506093870B0A13860A009306000631
:100768001385070093050004232AF100EF60001C9D
:10077800B797FFFF9387078013870C1B3307F70092
:1007880093070102B307F7001385070093850B0051
:10079800232CF100EF10001813050C00EF10C04ACD
:1007A80013050400EF10500B0325C10013890C003A
:1007B80037FDFEFFEF10500A930A0D809307091BBF
:1007C80013070102B3875701B70CFFFF13840CC04E
:1007D800B38AE7009307091BB3878700376AFFFFCF
:1007E800130A0A803384E7009307091BB38747017C
:1007F80013060000338AE70083254101930716009A
:1008080013850A0013990701EF104031B72700003C
:10081800130701029387071BB387E70037370000E8
:10082800930601021307071B3307D700B71600000A
:10083800938707809386064013590901130707C059
:10084800B386D70003A8070003A5470083A5870040
:1008580003A6C700232007012322A7002324B700EB
:100868002326C7009387070113070701E39CD7FCDA
:1008780013050400EF10403D373B0100B747FFFF69
:1008880013070B1B3307F700832581019307010228
:10089800B307F70013850700130604002326F100A9
:1008A800EF1080120325C100EF10407F0325C1001F
:1008B800EF1080640326C10093050A0013050600A3
:1008C800EF1090168325C10013850900EF10502BF7
:1008D80013850400EF50503A1306000493850B0665
:1008E80013850400EF50503C93850900130600302F
:1008F80013850400EF50503B13850400EF50503E21
:10090800138604009305000213850900EF509044F4
:10091800938509001305011DEF20801C1305011D97
:10092800EF10104013060C009305011D1305040079
:10093800EF10003A13050400EF104035930504004A
:100948001305040013860A00EF104029B7050800B4
:100958009385C5F313050400EF1080476318050C51
:10096800B777FFFF13070B1B3307F7009307010245
:10097800B307F7002328F1003736FFFF03250101ED
:100988001306068093070B1BB387C70013070102E2
:100998003386E7009305011DEF10807403250101DC
:1009A800930C0B00370B0400EF10406F0326010176
:1009B80093050A0013050A00EF10005F9305CBE3C7
:1009C80013050A00EF10407863120506032501019C
:1009D8003716FFFF93870C1BB387C7001307010265
:1009E8009305011D3386E700EF10806F0325010191
:1009F800EF10C06A0325010193050BF0EF10C074D6
:100A0800631605020326010193050A0013050A006F
:100A1800EF10C0520326C1000325010193050A0007
:100A2800EF1050079307700363F6A7001306090039
:100A38006FF09FDC8326010113850900130604006B
:100A480093850900EF0010370327C101B71700008D
:100A58009387D7CD2320F700B73201003301510027
:100A68008320C120032481208324412003290120DD
:100A78008329C11F032A811F832A411F032B011FBA
:100A8800832BC11E032C811E832C411E032D011EA6
:100A9800832DC11D1305000013010121678000008B
:100AA800130101FF23248100232291002326110032
:100AB8001384060093840500638A06023718000031
:100AC8001308C8CD9387F6FF33880601B307F600ED
:100AD8003308050103C30700938807001308F8FFCC
:100AE800A30068009387F7FFE31616FF3716000088
:100AF8001306D6CD93060400938504003306C5007B
:100B0800EFF0DFB283A704008320C10013050000C3
:100B1800B38787000324810023A0F40083244100C5
:100B2800130101016780000013010181B732FFFF43
:100B3800B71700002326117E2324817E2322917E6D
:100B48002320217F232E317D232C417D232A517D93
:100B58002328617D2326717D2324817D2322917D95
:100B68002320A17D232EB17B938202B39387D7CD17
:100B780033015100639AF52AB7ED00001309070005
:100B8800B747FFFF13870DC73307F7009307010126
:100B9800B307F700B724FFFF2324F100938C04392F
:100BA80093870DC7B3879701130701018325810038
:100BB800B38CE70093090500930B060013850C001E
:100BC80013060900138D0600EF008048B777FFFF72
:100BD80013870DC73307F70093070101B307F70021
:100BE800373AFFFF930A0AC02326F10093870DC7FF
:100BF800B3875701130701019385043BB38AE700C4
:100C080093870DC7B387B7000326C1003384E70075
:100C18009386090093850A0013050400EF0010303D
:100C280063140520B70508009385C5F313850A00EA
:100C3800EF10001A130C05006318051E138B043FF0
:100C480093870DC7B387670113070101338BE7004B
:100C58009306007A130609009305000213050B009A
:100C6800EF50D04C9389044393870DC7B38737015E
:100C780013070101B389E70013850900EF50C07F0E
:100C88001306000293050B0013850900EF50D001ED
:100C980093850B0013060D0013850900EF50D00053
:100CA80013850900EF50D00313860900930500044B
:100CB80013050B00EF50100A130A0A8093870DC71B
:100CC800B387470113070101338AE70013050A00B8
:100CD80093050400EF10D060B79BFFFF938B0B8048
:100CE80093870DC7B387770113070101B38BE7001B
:100CF80093850C0013850B00EF00D04113850A0083
:100D0800EF0090743769FFFF1309098093870DC7B7
:100D1800B3872701130701013389E70013860A0007
:100D280093850B0013050900EF00104A13050A000C
:100D3800EF10007F03258100EF10C02D03258100EF
:100D4800EF1080310326810093050A00138A0450AE
:100D580013050600EF10C03803268100930509002B
:100D680013050900EF10402413050900EF10801443
:100D780013050900EF10803213050900EF10C017A2
:100D88000326C1009305090013050900EF108058D8
:100D980093870DC7B387470113070101338AE7001B
:100DA8009305090013050A00EF10805D13850900FB
:100DB800EF50806C1306000493050B00138509009F
:100DC800EF50806E1306003093050A001385090062
:100DD800EF50806D13850900EF5080709384043DB7
:100DE80093870DC7B387970013070101B384E70002
:100DF800930500021385040013860900EF508075DF
:100E08009305040013850400930604026F00800014
:100E1800638ED50003C70500834705009385150039
:100E280013051500E306F7FE130CF0FFB7D2000018
:100E38009382024D330151008320C17E13050C00BB
:100E48000324817E8324417E0329017E8329C17D79
:100E5800032A817D832A417D032B017D832BC17C5D
:100E6800032C817C832C417C032D017C832DC17B49
:100E78001301017F67800000130101FE232821016F
:100E880037190000232C8100232631012324410136
:100E9800232E1100232A91009307C9CD93890600B8
:100EA800130A05001384050063E2D7049307F0FFD3
:100EB80023A0F500638A0600138609009305000045
:100EC80013050A00EF7000091305F0FF8320C10124
:100ED8000324810183244101032901018329C100DD
:100EE800032A81001301010267800000B7F6FFFFA3
:100EF80093863632930406001309D9CDB386D900F8
:100F080023A0D500330626019305090013850400A4
:100F1800EFF09FC16318050483270400E38807FAEC
:100F280093070000338727013387E40083460700CF
:100F38003307FA00938717002300D700032704001C
:100F4800E3E2E7FE8320C1010324810183244101F8
:100F5800032901018329C100032A81001301010229
:100F6800678000009307F0FF2320F4001386090030
:100F78009305000013050A00EF60D07D6FF0DFF4E1
:100F8800130101FF3367B5002326110023248100D4
:100F9800232291002320210113773700938705002E
:100FA80063180708138715003307E5401337370020
:100FB8006310070803A705002320E50003A74500E1
:100FC8002322E50003A785002324E50003A7C50025
:100FD8002326E50003A705012328E50003A745010B
:100FE800232AE50003A78501232CE50083A7C50173
:100FF800232EF50013040502930406001309057A4D
:10100800938504001305040013040414EF10904B97
:1010180093840440E31624FF8320C1000324810045
:1010280083244100032901001301010167800000A6
:10103800130705009385070283C6070093871700E7
:1010480013071700A30FD7FEE398B7FE6FF09FFAB8
:10105800130101FF3367A600232611002324810012
:1010680023229100232021011377370093070500DD
:1010780063180708130716003307E54013373700CE
:101088006310070803270600130406022320E5005F
:10109800032746002322E500032786002324E500D2
:1010A8000327C6002326E500032706012328E500B9
:1010B80003274601232AE50003278601232CE500A0
:1010C8000327C601232EE500938405001309067A39
:1010D800930504001385040013040414EF109045CD
:1010E80093840440E31624FF8320C1000324810075
:1010F80083244100032901001301010167800000D6
:101108001307060013040602834607001307170097
:1011180093871700A38FD7FEE31887FE6FF0DFFAD7
:10112800130101FE232C8100130405003365B5006B
:10113800232A91002328210123263101232E11007F
:10114800232441012322510113753500938805009A
:101158009309070013890700930408006318051A08
:1011680093871500B307F44093B737006390071AC5
:1011780083A705002320F40083A745002322F40059
:1011880083A785002324F40083A7C5002326F40041
:1011980083A705012328F40083A74501232AF40027
:1011A80083A78501232CF40083A7C501232EF4000F
:1011B8009307040233E7F60013773700631607181E
:1011C800138716003387E74013373700631E071667
:1011D80083A706002320F40283A746002322F402F3
:1011E80083A786002324F40283A7C6002326F402DB
:1011F80083A706012328F40283A74601232AF402C1
:1012080083A78601232CF40283A7C601232EF402A8
:1012180093070404130716003387E7401337370092
:10122800631607103367F60013773700631007104B
:10123800832706002320F404832746002322F4048E
:10124800832786002324F4048327C6002326F40476
:10125800832706012328F40483274601232AF4045C
:1012680083278601232CF4048327C601232EF40444
:10127800B71A0000938A0A40130A0406B30A5901F0
:101288009305090013050A0013090940EF10501CC3
:10129800130A0A08E3962AFF372A0000130A0A806D
:1012A8001309042E338A44019385040013050900A9
:1012B80093840440EF10D01913090908E3169AFE25
:1012C800B7170000938707FA9304045E3304F40009
:1012D80093850900138504009384041AEF10502D98
:1012E80093890940E39684FE8320C1010324810188
:1012F80083244101032901018329C100032A8100B4
:10130800832A41001301010267800000930704004B
:101318009385080203C7080093881800938717006D
:10132800A38FE7FEE39815FF6FF09FE89306060288
:10133800034706001306160093871700A38FE7FEDE
:10134800E318D6FE6FF0DFF29385060203C70600A6
:101358009386160093871700A38FE7FEE398B6FEDF
:101368006FF01FEB130101FE336EA800232C8100E0
:10137800232A91002328210123244101232E11002F
:101388002326310123225101137E3E0093080500D4
:10139800130408001383050013890600130A0700C5
:1013A8009384070063180E1A93071800B307F540D3
:1013B80093B737006390071A8327080013080802B9
:1013C8002320F500832744002322F5008327840087
:1013D8002324F5008327C4002326F500832704016E
:1013E8002328F50083274401232AF5008327840155
:1013F800232CF5008327C401232EF500B3670601CB
:1014080093F73700639A071893071402B307F64057
:1014180093B73700639207188327040293080404DC
:101428002320F600832744022322F6008327840220
:101438002324F6008327C4022326F6008327040307
:101448002328F60083274403232AF60083278403EE
:10145800232CF6008327C403232EF60093071404D5
:10146800B307F34093B7370063960710B3671301C8
:1014780093F7370063900710832704049309040641
:101488002320F300832744042322F30083278404C2
:101498002324F3008327C4042326F30083270405A9
:1014A8002328F30083274405232AF3008327840590
:1014B800232CF3008327C405232EF300B71A00005A
:1014C800938A0A40B30A5A019385090013050A0052
:1014D800130A0A40EF10407B93890908E3964AFFF4
:1014E800372A0000130A0A809309042E338A44011C
:1014F800938509001385040093840440EF10C07895
:1015080093890908E3169AFEB7170000938707FA2C
:101518009304045E3304F400938504001305090062
:101528009384041AEF10101D13090940E39684FEF2
:101538008320C1010324810183244101032901017E
:101548008329C100032A8100832A41001301010273
:1015580067800000930704001308040203C707000C
:101568009387170093881800A38FE8FEE318F8FE06
:101578006FF0DFE8138608001308030093090406D8
:10158800834706001306160013081800A30FF8FE79
:10159800E31836FF6FF09FF29308040483470800AE
:1015A8001308180013061600A30FF6FEE39808FFA9
:1015B8006FF0DFEA13871500130101FE3307E540DA
:1015C800232C8100232A9100232E11002328210196
:1015D800232631012324410113373700938705005F
:1015E8001304050093840600631A07103367B500D7
:1015F800137737006314071003A705002320E500BD
:1016080003A745002322E50003A785002324E5005E
:1016180003A7C5002326E50003A705012328E50045
:1016280003A74501232AE50003A78501232CE5002C
:1016380083A7C501232EF500371A0000130A0ACA2A
:101648001309040293090600330A4401938509002B
:101658001305090013090928EF101023938909407D
:10166800E3162AFF37190000130809CA33080401D2
:10167800130508001306D00393050000EF60900DD2
:10168800372E0000130979CD130E0E8013080500BC
:1016980013830400B3082401338EC40193060000A9
:1016A8001305001013070300930700000326070023
:1016B800B305D80013074700630606002380F5002A
:1016C8009386160093871700E392A7FE2380D8001D
:1016D8001303034093881800E3166EFC8320C101AE
:1016E8000324810183244101032901018329C100C5
:1016F800032A810013010102678000001307040018
:101708009385070283C607009387170013071700FE
:10171800A30FD7FEE398F5FE6FF01FF213871600AC
:10172800130101FD3307E540232A510123286101F4
:10173800232611022324810223229102232021033C
:10174800232E3101232C41012326710123248101F9
:1017580013373700138B060093070500930A06001A
:101768006316071833E7A6001377370063100718C6
:1017780003A70600138406022320E50003A74600FA
:101788002322E50003A786002324E50003A7C6005B
:101798002326E50003A706012328E50003A7460141
:1017A800232AE50003A78601232CE50003A7C60129
:1017B800232EE50037190000130909CA9384050090
:1017C80033092B019305040013850400130404282E
:1017D800EF10D01093840440E31689FEB71400007C
:1017E800138A74CD13880A00330A4B0113040000CE
:1017F800130C0000130970039384F4C9930B1000B1
:1018080093096000130508001306004093050000C3
:10181800EF60407403470A001308050093070700A8
:10182800636C8708636AE9086372E404B30594008B
:10183800B305BB001307040093168C0083C715007B
:101848006376E40003C605006378F606B387F600FE
:1018580093972700B387FA0023A0770183470A00EC
:101868001307170093851500E36AF7FC130C1C0097
:1018780013080840130A1A0063063C011384070082
:101888006FF05FF8130760036362F708371700000B
:10189800930607CAB387D700130777CDB307FB00B2
:1018A800330BEB006F0080006382670703C70700F4
:1018B80093871700E30A07FE130510008320C1026F
:1018C8000324810283244102032901028329C101DF
:1018D800032A8101832A4101032B0101832BC100C3
:1018E800032C8100130101036780000013070B001C
:1018F80013040B028346070013071700938717008A
:10190800A38FD7FEE31887FE6FF0DFEA1305000008
:101918006FF0DFFA130101FD232A5101B71A000005
:1019280023286101938A0A4037FBFFFF2320210304
:10193800232E3101232C4101232671012326110274
:101948002324810223229102138A050033095501B9
:1019580093090000130B0BC0930B0060B3046901DB
:1019680013840900130604001304140013850400EB
:1019780093050A001314040193840440EF00906453
:1019880013540401E39024FF9389091093990901E2
:1019980093D9090133895401E39279FD8320C10267
:1019A8000324810283244102032901028329C101FE
:1019B800032A8101832A4101032B0101832BC100E2
:1019C8001301010367800000130101FE232A91001F
:1019D80023225101B7240000B71A0000938A0A4055
:1019E800938404C0232C810023282101232631015C
:1019F80023244101232E110013030500138A050037
:101A080013090600B389550113040540B304950072
:101A1800130503001306004093050000EF60805390
:101A2800130305009308090013080A0093860800A9
:101A3800130708009307030003A507000326070000
:101A480083A5060013000000130000001300000027
:101A580033A6A55023A0C700938747001307470064
:101A680093864600E39A87FC130808409388084049
:101A7800E31E38FB1384074013030340B3095801DE
:101A8800330A5A01E31694F88320C1010324810123
:101A980083244101032901018329C100032A81000C
:101AA800832A41001301010267800000130101FE2F
:101AB800232821013719000013090940232C81002C
:101AC800232A910023263101232E110093040500B7
:101AD80093890500130406003309250193071400B0
:101AE800130604001385040013940701938404402B
:101AF8009385090013540401EF005068E39024FF14
:101B08008320C101032481018324410103290101A8
:101B18008329C1001301010267800000130101FE3F
:101B2800232C810013142600232821013304C40028
:101B3800371900001314040113090940232A9100DE
:101B480023263101232E11009304050093890500F3
:101B58001354040133092501130604001304140067
:101B68001385040093850900131404019384044029
:101B7800EF10005F13540401E39024FF8320C10198
:101B88000324810183244101032901018329C10020
:101B98001301010267800000130101FF2322910055
:101BA800B7140000938404402324810023261100E5
:101BB80013040500B304950013050400130404403E
:101BC800EF001001E31A94FE8320C1000324810072
:101BD800832441001301010167800000130101FE05
:101BE800232A9100B7140000232C81002328210107
:101BF8002326310123244101232E1100130A050055
:101C08009389050013090600130400009384044017
:101C180033068900B385890033058A00130404401C
:101C2800EF001003E31694FE8320C1010324810111
:101C380083244101032901018329C100032A81006A
:101C48001301010267800000130101FF23229100A4
:101C5800B714000093840440232481002326110034
:101C680013040500B304950013050400130404408D
:101C7800EF00100BE31A94FE8320C10003248100B7
:101C8800832441001301010167800000130101FF53
:101C980023229100B7140000938404402324810078
:101CA8002326110013040500B3049500130504004E
:101CB80013040440EF001007E31A94FE8320C100C8
:101CC800032481008324410013010101678000007F
:101CD800B71E0000938E0E40B30ED601138E05403A
:101CE80013030000938705009306050013070600F9
:101CF80003A8070083280700130000001300000052
:101D08001300000033A8685023A0060193874700FA
:101D18001307470093864600E39CC7FD1306064059
:101D280013050540E310D6FD67800000130101FF8D
:101D380023248100232291001384050093040600C4
:101D480093050000130600402320210123261100DB
:101D580013090500EF600020371E0000130E0E4027
:101D68009308040013830400330EC40113080940C8
:101D780093070900930603001387080003A50700CB
:101D88000326070083A506001300000013000000C7
:101D98001300000033A6A55023A0C700938747006F
:101DA8001307470093864600E39A07FD9388084087
:101DB80013030340E39EC8FB8320C1000324810072
:101DC80083244100032901001301010167800000F9
:101DD800130101FF23229100B714000093840440EB
:101DE8002324810023202101232611001304050048
:101DF80013890500B3049500130504009305090031
:101E0800EF0010181304044063100502E31694FE53
:101E18008320C10003248100832441000329010099
:101E280013010101678000008320C10003248100A1
:101E38008324410003290100130510001301010147
:101E480067800000130101FE2328210137290000C3
:101E580013090980232C8100232A910023263101AC
:101E6800232E11009304050093890500130406002E
:101E78003309250193071400130604001385040091
:101E880013940701938404409385090013540401B3
:101E9800EF00D02EE39024FF8320C10103248101A9
:101EA80083244101032901018329C100130101028F
:101EB80067800000130101FF23229100B72400006E
:101EC8009384048023248100232611001304050031
:101ED800B30495001305040013040440EF00404FB9
:101EE800E31A94FE8320C100032481008324410067
:101EF8001301010167800000130101FF23229100F3
:101F0800B724000093840480232481002326110031
:101F180013040500B30495001305040013040440DA
:101F2800EF00004FE31A94FE8320C10003248100D0
:101F3800832441001301010167800000130101FEA1
:101F4800232A9100B7240000232C81002328210193
:101F58002326310123244101232E1100130A0500F1
:101F68009389050013090600130400009384048074
:101F780033068900B385890033058A0013040440B9
:101F8800EF00004DE31694FE8320C1010324810174
:101F980083244101032901018329C100032A810007
:101FA8001301010267800000130101FE232A91003A
:101FB800B7240000232C8100232821012326310186
:101FC80023244101232E1100130A050093890500DB
:101FD8001309060013040000938404803306890063
:101FE800B385890033058A0013040440EF00C04B11
:101FF800E31694FE8320C101032481018324410157
:10200800032901018329C100032A81001301010268
:1020180067800000130101FF23229100B72400000C
:1020280093840480232481002326110013040500CF
:10203800B30495001305040013040440EF00804C1A
:10204800E31A94FE8320C100032481008324410005
:102058001301010167800000130101FF2322910091
:10206800B7240000938404802324810023261100D0
:1020780013040500B3049500130504001304044079
:10208800EF00004AE31A94FE8320C1000324810074
:10209800832441001301010167800000130101FF3F
:1020A80023229100B7240000938404802324810014
:1020B8002326110013040500B3049500130504003A
:1020C80013040440EF000046E31A94FE8320C10085
:1020D800032481008324410013010101678000006B
:1020E800372E0000130E0E8013030500938E050093
:1020F80093080600330EC601138805401305000037
:1021080093870E00930603001387080003A60700B1
:1021180083250700130000001300000013000000CF
:1021280033A6A55023A0C60093874700130747008E
:1021380093864600E39C07FD9388084013030340F9
:10214800E390C8FD67800000130101FF232291007E
:10215800B7240000938404802324810023202101D4
:10216800232611001304050013890500B304950004
:102178001305040093050900EF0080601304044070
:1021880063100502E31694FE8320C1000324810036
:102198008324410003290100130101016780000025
:1021A8008320C10003248100832441000329010006
:1021B800130510001301010167800000130101FEDF
:1021C800232A9100B7240000232C81002328210111
:1021D8002326310123244101232E1100130A05006F
:1021E80093890500130906001304000093840480F2
:1021F80033068900B385890033058A001304044037
:10220800EF00403AE31694FE8320C10103248101C4
:1022180083244101032901018329C100032A810084
:102228001301010267800000130101FE232A9100B7
:10223800B7240000232C8100232821012326310103
:1022480023244101232E1100130A05009389050058
:1022580013090600130400009384048033068900E0
:10226800B385890033058A0013040440EF00803ADF
:10227800E31694FE8320C1010324810183244101D4
:10228800032901018329C100032A810013010102E6
:1022980067800000130101FE23282101372900006F
:1022A800232C8100232A9100232631012324410174
:1022B80023225101232E1100930A0500138A0500D9
:1022C8009309060013040000930400001309098011
:1022D80033868900B3058A0033858A00EF00803A87
:1022E80013040440B384A400E31424FF8320C10131
:1022F80003248101032901018329C100032A8100E4
:10230800832A41001385040083244101130101023B
:1023180067800000130101FE232A9100B724000002
:10232800232C810023282101232631012324410164
:10233800232E1100130A05009389050013090600CE
:10234800130400009384048033068900B385890050
:1023580033058A0013040440EF00403BE31694FE63
:102368008320C10103248101832441010329010140
:102378008329C100032A810013010102678000003C
:10238800130101FF2324810023229100232021012E
:102398002326110013040500938405001309053052
:1023A800938504001305040013040408EF00905FEC
:1023B80093840440E31624FF8320C1000324810092
:1023C80083244100032901001301010167800000F3
:1023D800130101FF232481002322910023261100E9
:1023E8001304050093040540032504001304440066
:1023F800EF10C002232EA4FEE31894FE8320C10030
:102408000324810083244100130101016780000037
:10241800130101FF232481002322910023261100A8
:102428001304050093040540032504001304440025
:10243800EF10C000232EA4FEE31894FE8320C100F1
:1024480003248100832441001301010167800000F7
:10245800130101FF23266101232471019307000062
:102468009308100013080040B386F5003307F60000
:1024780003AB0600832B07001300000013000000C5
:102488001300000033AB1B613307F50023206701FD
:1024980093874700E39A07FD032BC100832B810034
:1024A8001301010167800000130101FF2326610168
:1024B80023247101930700009308100013080040BB
:1024C800B386F5003307F60003AB0600832B07003D
:1024D80013000000130000001300000033AB1B6161
:1024E800130000003307F500232077019387470086
:1024F800E39807FD032BC100832B81001301010121
:102508006780000013070540832705001305450071
:102518009397D700232EF5FEE318E5FE67800000A9
:102528006F00D04A6F009057130101FE232C8100E1
:10253800232A910023282101232631012324410144
:10254800232E110093090500138905009304060042
:1025580013040000130A004033078900B38784007E
:1025680083A7070003250700B315F5023305F50215
:10257800EF009064B387890023A0A70013044400E8
:10258800E31C44FD8320C10103248101832441010C
:10259800032901018329C100032A810013010102D3
:1025A80067800000130101FE232C8100232A91007B
:1025B800232821012326310123244101232E110040
:1025C800930905001389050093040600130400000D
:1025D800130A0040B387840083A5070033058900E8
:1025E800EF00906AB387890023A0A7001304440072
:1025F800E31244FF8320C1010324810183244101A4
:10260800032901018329C100032A81001301010262
:1026180067800000130101FE232C8100232A91000A
:10262800232821012326310123244101232E1100CF
:10263800930905001389050093040600130400009C
:10264800130A0040B387840083A507003305890077
:10265800EF00D065B387890023A0A70013044400C6
:10266800E31244FF8320C101032481018324410133
:10267800032901018329C100032A810013010102F2
:1026880067800000130101FE232C8100232A91009A
:10269800232821012326310123244101232251012A
:1026A800232E1100130A050093890500130906005B
:1026B8001304000093040000930A0040B3878900C4
:1026C8003307890003A5070083250700EF009063FF
:1026D800B3078A0023A0A70013044400B384A4000E
:1026E800E31E54FD8320C101032481010329010154
:1026F8008329C100032A8100832A4100138504002D
:10270800832441011301010267800000130101FEC7
:10271800232C8100232A910023282101232631011B
:1027280023244101232E1100930905001389050074
:102738009304060013040000130A0040B30789003D
:102748003387840003A5070083250700EF00905F07
:10275800B387890023A0A70013044400E31044FFB3
:102768008320C1010324810183244101032901013C
:102778008329C100032A8100130101026780000038
:10278800B7071000938707C063C6B7021306054052
:102798006F0080006304A602832705001305450027
:1027A8001397170093D6F7413377D700B387E740DD
:1027B800E3C2B7FE13051000678000001305000090
:1027C80067800000130101BB232A5143930A0500C7
:1027D800130501002326114423248144232C41435B
:1027E8001304410D2322914423202145232E3143F4
:1027F80023286143232671432324814323229143C1
:10280800EF40500D93055000130504001306010016
:10281800EF30D039B70580001308C1411307040011
:10282800130A00009385F5FF37E57F009308001031
:1028380083471700834627000346070093978700BE
:1028480093960601B3E7D700B3E7C70093162A00AB
:10285800B3F7B700B386DA001307370013061A0078
:102868006368F50023A0F6006304160D130A06003A
:10287800E310E8FC93043000B70B800013058034A4
:102888001309001093092000938BFBFF338C8440BD
:10289800B37C9502330B494163860C0C3305954193
:1028A8009307054233852700834745CB230AF10C5C
:1028B80063963C01834755CBA30AF10C3305940179
:1028C8001306010093051000EF30502E13858C0A73
:1028D800930604001306000037E87F0083C716003C
:1028E80003C7260083C506009397870013170701BF
:1028F800B3E7E700B3E7B7003307CA0093863600AB
:1029080013172700B3F77701B305DC003387EA0014
:102918006366F8002320F700130616006374660147
:10292800E37EB5FA330ACA009307F00FE3F247F7DC
:102938008320C1440324814483244144032901445E
:102948008329C143032A8143832A4143032B01433B
:10295800832BC142032C8142832C41421301014540
:10296800678000001305040013060100930510009A
:10297800EF30D0231305800A6FF09FF5130101E0B3
:102988002320611F130B050013050100232E111EC0
:102998002324411F232C811E232A911E2328211F13
:1029A8002326311F2322511FEF40807893052000F2
:1029B800130601001305010DEF30904E9308011E18
:1029C8001307010D130A000093058000130300107C
:1029D800130840008347070093162A00B306DB005C
:1029E80013F6F7003305C84093D7470063F4C50AC8
:1029F80063EEF50093162A00B306DB00B307F84030
:102A080023A0F600130A1A00630E6A0813071700BA
:102A1800E392E8FC930A811513090010130480005F
:102A2800930940009304F00F13060100930510006A
:102A38001305010DEF30D04613182A0033080B0197
:102A4800B30849411306010D9306000083470600A9
:102A5800139726001306160093F5F7003307E800CE
:102A68003383B94093D747006366B40023206700D7
:102A7800938616006360F406139726003307E80070
:102A8800B387F94063E41605330ADA00E3FE44F934
:102A98006F00400123A0A600130A1A00E3E6F5F62A
:102AA800E31A6AF48320C11F0324811F8324411F72
:102AB8000329011F8329C11E032A811E832A411E5F
:102AC800032B011E13010120678000002320F7005B
:102AD80093861600E3FA16FBE39ACAF66FF0DFFA5C
:102AE800130101E823244117130A050013050109FE
:102AF800232E1116232C8116232A911613840500E0
:102B08002328211723263117232251172320611741
:102B1800EF3090169305040013060002130501090F
:102B2800EF30901813050109EF30901B13060109C7
:102B38009305100013058100EF3090368347A100FC
:102B4800034691008346D1000345C1000347E100D5
:102B5800834581008344B1000349F10013168600C0
:102B68009397070193968600B3E6A600B3E7C700DC
:102B780013170701B3E7B7003367D70093948401AD
:102B880013198901130600409305000013050A0074
:102B9800B3E4F4003369E900EF50C03B9309CA334A
:102BA8001304F00C93078000130B8008930A00109D
:102BB800638067091387071633072700034787EAE7
:102BC80093871700E366E4FE131727003307EA002C
:102BD8008326070013F614001316160023A0D90045
:102BE80093061000B386C64093D414001316F90157
:102BF8002320D70013041400B36496001359190056
:102C080093894900E31654FB8320C11703248117D5
:102C180083244117032901178329C116032A811622
:102C2800832A4116032B011613010118678000003F
:102C3800130601099305100013058100EF30502693
:102C48000347810093071000E366E4F66FF0DFF7AF
:102C5800138605409306400083A7450003A7050097
:102C680093858500B387F64093F7F70F939747004E
:102C78003387E640B3E7E7002300F50013051500A6
:102C8800E31CB6FC6780000013060540930640006D
:102C980083C70500130585009385150093F7F70092
:102CA800232CF5FE03C7F5FFB387F640232CF5FE6A
:102CB80093574700B387F640232EF5FEE31AC5FC69
:102CC800678000009386054083A70500938505016A
:102CD80013055500A30DF5FE83A705FF03A745FFC0
:102CE80093D7874013172700B3E7E700230EF5FEB5
:102CF80083A745FF03A785FF93D7674013174700AE
:102D0800B3E7E700A30EF5FE83A785FF03A7C5FF7A
:102D180093D7474013176700B3E7E700230FF5FE83
:102D280083A7C5FF93D72740A30FF5FEE39ED5F8E9
:102D3800678000009386051483C7150003C7050044
:102D48009385550093978700B3E7E70093F7F73F1C
:102D58002320F50083C7C5FF03C7D5FF1305050169
:102D680093D7270013176700B3E7E70093F7F73FF8
:102D7800232AF5FE83C7D5FF03C7E5FF93D747008E
:102D880013174700B3E7E70093F7F73F232CF5FE47
:102D980083C7E5FF03C7F5FF93D76700131727001D
:102DA800B3E7E700232EF5FEE398B6F86780000046
:102DB800130101FD232681022324910223222103EA
:102DC80023203103232E4101232C5101232A6101A1
:102DD80023287101232681019302051A371E00005A
:102DE80003AF050083A8450003A8850083AEC5008E
:102DF80003A7050103A6450183A7850183A6C5018D
:102E0800B3081E41B30EDE413307EE40B307FE4060
:102E1800330FEE4133080E413306CE40B306DE4091
:102E2800139C580013D4B800931B2800139B7E00F2
:102E380093D39E00931A4700935FC700131A160096
:102E48009399670013D3A7001399360093548F0002
:102E58001358680013567600B3E4840193D83800F9
:102E6800336474013368680193DE1E00B3E35301D1
:102E780013574700B3EF4F013366360193D7270046
:102E88003363230193D656002300E501A300950080
:102E980023011501A301850023020501A302D50121
:102EA80023037500A303E5002304F501A304C5006B
:102EB8002305F500A30565002306D5001305D500F5
:102EC80093850502E39EA2F00324C10283248102B4
:102ED8000329410283290102032AC101832A8101AE
:102EE800032B4101832B0101032CC10013010103B2
:102EF80067800000B72E0000138F051A938EFEFF1F
:102F0800371E000083C705009385D5001305050209
:102F18002320F5FE03C345FF131383003363F30037
:102F28003373D301232065FE03C745FF33036E4087
:102F3800135757002322E5FE83C755FF93973700A1
:102F4800B3E7E7002322F5FE83C865FF9398B8002E
:102F5800B3E8F800B3F8D801232215FF83C765FF4B
:102F6800B3081E4193D727002324F5FE03C875FF35
:102F7800131868003368F8003378D801232405FF54
:102F880083C775FF33080E4193D777002326F5FED4
:102F980003C785FF131717003367F7002326E5FEDD
:102FA80083C795FF93979700B3E7E700B3F7D70177
:102FB8002326F5FE03C795FF3306FE4093574700C7
:102FC8002328F5FE03C7A5FF131747003367F7004B
:102FD8002328E5FE83C7B5FF9397C700B3E7E7004B
:102FE800B3F7D7012328F5FE03C7B5FFB306FE40A4
:102FF80013571700232AE5FE83C7C5FF9397770069
:10300800B3E7E700B3F7D701232AF5FE83CFC5FF5F
:103018003307FE4093D76F00232CF5FE83CFD5FFEF
:10302800939F2F00B3EFFF00232CF5FF83C7E5FF25
:103038009397A700B3E7F701B3F7D701232CF5FE61
:1030480083C2E5FFB307FE4093D23200232E55FE1C
:1030580083CFF5FF232215FF232065FE93985F0099
:10306800B3E85800B3081E41232405FF2326C5FEF4
:103078002328D5FE232AE5FE232CF5FE232E15FF53
:10308800E312BFE86780000013030528370608002D
:1030980003A7050083A74500130555003307E6403D
:1030A800B307F6401398470093560701B3E60601A5
:1030B8009358870013D8470093D7C700A30DE5FEA0
:1030C800230E15FFA30ED5FE230F05FFA30FF5FE54
:1030D80093858500E31EA3FA678000003708100077
:1030E800938805281308F8FF3706080083C70500EA
:1030F8009385550013058500232CF5FE03C7C5FFEE
:10310800131787003367F700232CE5FE83C7D5FF25
:1031180093970701B3E7E700B3F70701232CF5FE00
:1031280003C7D5FFB307F64013574700232EE5FE24
:1031380083C6E5FF93964600B3E6E600232ED5FE48
:1031480003C7F5FF232CF5FE9317C700B3E7D70095
:10315800B307F640232EF5FEE39A15F967800000C1
:10316800130101C7232481381304050013058100C6
:1031780023261138EF30D07B130681001305810D0B
:1031880093055000EF30C0519305810D13050400DD
:10319800EFF0DFF48320C1380324813813010139AB
:1031A800678000009386054083A7450003A70500B4
:1031B8009385850093974700B3E7E7002300F50060
:1031C80013051500E392B6FE67800000130101FEA7
:1031D800232A310123229101232E9100232C21013E
:1031E800232841012326610123247101930900004A
:1031F800930C0008175600001306463F9306F00F7D
:1032080013870C00930400009389190093972900F1
:1032180013890400B307F600B384E40003AA070087
:10322800637699049302090093922200B302550031
:1032380003AB020033039901131323003303650022
:10324800832B03001300000013000000130000008C
:1032580033AB4B6123A062011300000023207301EC
:1032680013091900E36099FCB304E900E3FE96F83A
:1032780093DC1C00E3960CF88324C1010329810127
:1032880083294101032A0101032BC100832B8100FB
:10329800832C41001301010267800000130101FE25
:1032A800232A310123229101232E9100232C21016D
:1032B8002328410123266101232471019309001069
:1032C800930C100017560000130646329306F00FB1
:1032D80013870C00930400009389F9FF9397290042
:1032E800B307F60003AA070013890400B384E400B7
:1032F800330A4041637699049302090093922200AD
:10330800B302550003AB02003303990113132300E2
:1033180033036500832B0300130000001300000033
:103328001300000033AB4B7123A0620113000000AF
:103338002320730113091900E36099FCB304E90021
:10334800E3FC96F8939C1C00E3F496F9B7677F00BA
:1033580013090000938717021307F00F930209005F
:1033680093922200B302550003AB0200930B0000B6
:1033780013000000130000001300000033ABFB70C3
:10338800130000001300000023A0720113091900A4
:10339800E37627FD8324C1010329810183294101A3
:1033A800032A0101032BC100832B8100832C4100D8
:1033B80013010102678000003727800313071700F5
:1033C8003307E5021358F741135667019317A8000E
:1033D8009316A700B306D740B367F600B307F840C3
:1033E8003336D700B387C7409397D7001396D600D4
:1033F80093D636013307E640B3E7F6003336E600E6
:10340800B3870741B387C7403305A7003335E500C5
:10341800B387B7003305F50067800000B7074000A1
:10342800B307F500372780FF1307F7FF93D77741D6
:10343800B387E7023385A7006780000037E77F007E
:103448009357F54113071700B3F7E7003385A70033
:1034580067800000B7074000B307F500372780FFF3
:103468001307F7FF93D77741B387E70237E77F0062
:10347800130717003305F5009357F541B3F7E70035
:103488003385A70067800000B71700009387F7FF10
:10349800B387F50037E7FFFF33F7E700B385E5406B
:1034A8002320B50013D5D740678000001387F507A0
:1034B800135777409317A700B387E7003707200013
:1034C800B387E70093D7674193F7F7001397A700EF
:1034D8003387E74013179700B305B70037F73F0066
:1034E8003307B740B7E67F00938616001357F741B6
:1034F8003377D700B385E5402320B500138507004F
:1035080067800000B7070400938707F0B706080034
:10351800B307F500938606E01307050063E0F6029B
:10352800B707FCFF93870710130500006304F70033
:10353800678000003335B000678000001305100075
:10354800678000001307F507135777409317A70004
:10355800B387E70037072000B387E70093D76741B1
:103568009306050013F5F700638205049317A50079
:10357800B307F54093979700B387D70037F73F0015
:103588003307F740B7E67F001357F74193861600D5
:103598003377D7006358F700130515001375F50046
:1035A800678000001305F5FF1375F50067800000BC
:1035B8009307100063EAC504B387C702B3D6F502C0
:1035C800E3FCC6FE638E0702930890006F0080003C
:1035D800B3D6F50213F7F60F13087703130707039B
:1035E800130515001377F70FB3F5F502B3C7C70234
:1035F80063D4D8001377F80FA30FE5FEE39A07FC0E
:103608002300050067800000938605006FF0DFFB4C
:10361800175800001308C870930790008328080003
:103628003386A54063F0A724930710009306900003
:1036380013972700B307F700939717003357F5023E
:10364800E3E8E6FE930EA000130E90003353F50254
:10365800938818009376F30F138776033375F50272
:10366800938606031377F70FB3C7D70363446E0037
:1036780013F7F60FA38FE8FEE39A07FC23800800F0
:10368800130500029756000093860666371700E078
:103698008327C70293F70701E39C07FE938616006A
:1036A8002328A70203C50600E31405FE17550000EA
:1036B8001305456A8346050093080500371700E09F
:1036C800638006028327C70293F70701E39C07FE7E
:1036D800938818002328D70283C60800E39406FEBF
:1036E80013079000832808009307100093069000A2
:1036F800637CB70013972700B307F7009397170069
:1037080033D7F502E3E8E6FE930EA000130E90000F
:1037180033D3F502938818009376F30F1387760353
:10372800B3F5F502938606031377F70FB3C7D703EC
:1037380063446E0013F7F60FA38FE8FEE39A07FCC5
:103748002380080093050002975600009386C65A06
:10375800371700E08327C70293F70701E39C07FEAA
:10376800938616002328B70283C50600E39405FE56
:1037780083460500975500009385C55D371700E01F
:10378800638006028327C70293F70701E39C07FEBD
:10379800938515002328D70283C60500E39406FE07
:1037A80013079000832508009307100093069000E4
:1037B800637CC70013972700B307F7009397170098
:1037C8003357F602E3E8E6FE1303A00093089000DF
:1037D8003358F602938515009376F80F138776030E
:1037E8003376F602938606031377F70FB3C767029B
:1037F80063C4080113F7F60FA38FE5FEE39A07FCED
:103808002380050013060002975600009386C64FD2
:10381800371700E08327C70293F70701E39C07FEE9
:10382800938616002328C70203C60600E31406FE83
:1038380083460500175600001306C651371700E0E7
:10384800638006028327C70293F70701E39C07FEFC
:10385800130616002328D70283460600E39406FEC3
:1038680067800000930710006FF0DFDD1307C502C3
:103878008327070093F70701E39C07FE2328B50277
:10388800678000008346050063820602371700E060
:103898008327C70293F70701E39C07FE130515006A
:1038A8002328D70283460500E39406FE67800000BC
:1038B800B71700E01307300023A0E7006780000077
:1038C80083270500130101E8232A21172328F10A79
:1038D800832745002328311723245117232AF10A67
:1038E8008327850023226117232071172328F100DD
:1038F8008327C500232E8115232C9115232CF10A2B
:1039080083270501232AA1152328B115232EF10A9F
:1039180083274501232E8116232C91162320F10C91
:1039280083278501232641172322F10C8327C5010C
:103938002324F10C832705022326F10C8327450253
:103948002328F10C83278502832D0503832C050684
:10395800232AF10C8327C502032C4506232CF10CDE
:1039680083274503232AF10083278503232EF100AB
:103978008327C5032320F10283270504232EF10C96
:10398800832745042320F10E83278504232CF10087
:103998008327C5042322F102832705052324F10286
:1039A800832745052326F102832785052322F10E67
:1039B8008327C5052324F10E832785062328F102D2
:1039C8008327C506232AF10283270507032B050948
:1039D800832945092326F10E83274507930B0B00FE
:1039E800138D09002328F10E83278507130B0C007C
:1039F800232AF10E8327C507232CF10E83270508F8
:103A0800232CF10283274508232EF10283278508FA
:103A1800232EF1048327C5082320F106832785096F
:103A28002320F1048327C5092322F1048327050AEB
:103A38002324F1048327450A2326F1048327850AD2
:103A48002326F1068327C50A2328F1068327050BB9
:103A58002328F1048327450B0329050C832A450CE9
:103A6800232AF1048327850B232EB10F2326A114C3
:103A78002322F1068327C50B930D090013890C0037
:103A88002324F10697570000938747F62326F10071
:103A98008327010B0327410D8326410B0323C10B09
:103AA800032EC101832E010C032F01028323410C35
:103AB8000324C10D0326810D032501010328810B71
:103AC80083284101032CC10C832C81018322C1026C
:103AD800B3C5E7000327C10F8324810C8329010E96
:103AE800832F8102B347C30133C6C60033CEEE012C
:103AF80033C38300832E010D032F41020324810E5B
:103B08008323410EB346E500334656003347180178
:103B18008322C10333489C01832C010F032CC10E5F
:103B2800B3C8340133C5EE0183240103832941035B
:103B3800832E410F032F810FB3C5F501B3C676005D
:103B4800832F8103334787008323C105032401069C
:103B58003345950133475700832CC104832241051F
:103B6800334E6E01334E8E00B3C5D5013346E601A0
:103B7800832EC106032F0107334696013348880177
:103B8800B34C5E00032C8104032E4106334393009B
:103B9800B3C6F60183240104832F01053347E701E7
:103BA800B3C6D60133437301B3C72701B3C5850133
:103BB800131A1700334CC301B3C838010323810615
:103BC80083294104B3C7770013D4F601B3C7F701BB
:103BD8003364440133489800139A16009354F7014C
:103BE800B3C8A801B3E4440193D2F701139A1C00A7
:103BF800B3E242013345350113DAFC01B3C9680069
:103C080093931700B3637A00135FFC01139A1900AA
:103C18003348B80133455501931F1C00336F4F01DA
:103C280013DAF901B36FFA01131E1500135AF801DC
:103C3800935EF501336ECA01131A18009318160023
:103C48001353F601B3EE4E0133C6C20013DAF50181
:103C580083224101B3681A01B3C83801B349560039
:103C6800B3C25801832A410CB3CEFE00334E9E01E5
:103C7800139A1500938C0E00B3C5B300B3C37E012D
:103C8800B3CE5E01832A810C334FEF0033634301C7
:103C98003343830133C80401130C0F00B3446F018D
:103CA800334F5E01832A8101B3C6DF00832B810273
:103CB800B34FB301930D030033435301832A4102E9
:103CC8003345A4003344AE01130D0E0033CE580122
:103CD800930A080033487801832BC102232C110171
:103CE800130B0500B3487501832B81030327C10F0C
:103CF8009387050033C57501232CA1040325010111
:103D0800832BC103232AF106B3C7A7000325810B20
:103D180033CAE50013070600B345760133C9260107
:103D2800938B0600232CE106832601053347A70061
:103D38000325C10133C6DB00232E7107B3CBAB00CB
:103D4800832641052326710B0325010223229109AD
:103D58002324A109B34BAC0003250103232C710BC9
:103D68002326B109B3CCAC0003254103832B810181
:103D780023285101334DAD00032501042324A10D4F
:103D88002322910DB3CDAD0003254104939CB400CB
:103D9800232EB10F33C5AB002320A11003258104C6
:103DA800935D4A0193D45401B3CAAA000325C10400
:103DB80023225111832AC1003345AB002324A110CB
:103DC80003A50A0003AD4A00232081092328A1087E
:103DD8001395C900232EA100135559011319B900D1
:103DE800232A6101232EA1092320B1032322910351
:103DF8002324A102232621031395D5002328910209
:103E080093D4B300232A91022326A1040325810514
:103E180093145401232C9102B346DC0093543501CA
:103E2800232891049394D601232A910493543600AD
:103E380013D9F701232C9104931417002320210B85
:103E48002322910A0329C10183240102131ACA00FB
:103E580093D9490133699900B3693A01832441022E
:103E6800032A8102232A21090329C10233EA4401D2
:103E780083240103232E4101032A4103B3649900DB
:103E8800232091028324810313DC2F01232E810335
:103E9800336A9A008324C10313DD4E00931CCF01BB
:103EA800135CC300931B4E01135F4F00135ECE00DB
:103EB800939ECE0113134301939DE200135BD80137
:103EC800939A3800B36EDF0133636E009393530106
:103ED80093D2220193D8D8011354B400939FEF00D2
:103EE8001318380033647400B3EFF201B3E3B4017C
:103EF800B3629D0133E80801232AD103232E61020E
:103F0800B36E7C0133635B01232C31092324410305
:103F180023228102232871022326F103232C510234
:103F28002320D10523246104232201050328C10489
:103F3800832F0105832481051316D601B36FF80179
:103F48000328410593D63600B366D600B3629800BD
:103F58008324410A0328010A93D535011315D50096
:103F680033669800032F0101032B4101832DC108FB
:103F78000329C10C3365B5002324C10A8325410DEB
:103F88000326810D1357F701939717003364F70041
:103F9800334ECB0033C72D01B347BF000323810144
:103FA8000329010D032641078325410E232CD10443
:103FB800B3462301334CB6000329810E83258107BC
:103FC8002328A1040325C107B3CB25010329C10573
:103FD80003280108832841083343250103290106E2
:103FE8002326F105232A5104B34C2801032941064D
:103FF8002322810A2326C11133CD2801032E8108EB
:10400800032981060326810B8322810CB34D2E01DF
:10401800131A66000329C10A935EA6010326410C00
:10402800832F010B93D4720023209106131E69007D
:104038009359760093189601935AA9010326C10F44
:104048001399920183220110B34FFF01B3EA4A0189
:10405800130F0B00032A0106032B410B13D882010F
:1040680013158600334F6F0133E92901032BC10B68
:10407800B3691A01336AA8000325C1070328010898
:104088009354860133456501032B010C1394820078
:10409800B3E884003348680123241107032BC10DBA
:1040A800832841080326411083258110B3EECE01F1
:1040B80023260113032E810833C86801032B010E40
:1040C8009353E600939225011316260193D5E50034
:1040D80033446E0133E6C500232E51052326210BF8
:1040E80023203107232241072328C10A2324A112B0
:1040F800232801130325C108232A8112032BC10E8B
:104108008328810183250101B34A6501032B010F2F
:1041180003258109032EC10133CA68018328410F91
:1041280083240102B3E25300B3C915018325410179
:104138008328810F832341021348F5FF33C91501F2
:10414800832541078328C1061345FEFF032E01037B
:10415800B3C8150123221109832581078328010784
:1041680013CBF3FF8323810233C61501832541094D
:104178002324610913C4F3FF93C8F5FF93C5F4FF23
:104188008324C102832301042326810813CBF4FF6F
:104198009344FEFF032E81042320610B13C4F3FF15
:1041A800134BFEFF032EC104232CC112232A910AAC
:1041B800232C810A232E610B1344FEFF8324C103A1
:1041C800832341042320810C032E010593C4F4FFAB
:1041D80093C3F3FF134BFEFF032E41052322610D0A
:1041E8001344FEFF032E81052324810C134BFEFF8D
:1041F800032E41032326610D1344FEFF032E810382
:104208002328810C134BFEFF032E410A232A610D3C
:10421800139BB6011344FEFF032E810A232C810C45
:10422800232861011344FEFF032EC11023228112AB
:1042380093D6560013164E00232AC10013D6C70181
:10424800232CC10013566C012326C1061396AB001C
:104258002328C10603260101135457001317B70179
:104268003364C40033E7E6000326410123288100B4
:1042780013040700032781018326010793DB6B01E1
:104288003367E6000326C10693974700135BCE0108
:10429800232A7107931BAC00135C130133EB6701EE
:1042A800B366D600232C8107139CFC00232E8107BC
:1042B800232AE100232C61012328D1060326410784
:1042C80013DC1C01139E8D01931CF30013538D0006
:1042D8008327C10703270102B36B7601B36C9C01E6
:1042E80003268107336C6E0003230109B376E800C7
:1042F800B367F6000328C1023346F301032381089C
:10430800131D8D0193DD8D00B36DBD01032DC10912
:10431800232A9107B37C03010323C108032801035F
:104328002324D10E83264102334DED01032EC10112
:104338002320A10F337D03010323010A232E8107C4
:10434800337CD50083268102B3F8C8013373F301A7
:104358002322110F232E610EB3F8D5000323410B3E
:104368002328110F832841043373E3018325810B2C
:1043780023267107232CF1062320B109232EC10C13
:104388002326810F232A910F232CA10F23206110AC
:10439800B3F41401832881041343FFFF832B010521
:1043A80033FF15018325C10B032C4105832C81059F
:1043B80033F575018325010C13CEFFFF83284103D4
:1043C800B3FF85018325410C2322E111032FC1048A
:1043D80033F795018325810CB3F3E301032FC10360
:1043E800B3F71501832881038325C10C832D0106AA
:1043F8002324A110B3F51501232AB1108325010D3B
:1044080013C5FDFF832DC10AB3F5E501232CB110B7
:10441800032F01048325410D2328F110832741062A
:10442800B3F5E501232EB11093C5FDFF832D810D52
:10443800032DC1052326E11033FFDD01832D411231
:1044480013C7F7FF2320E112B3FDAD01032781064F
:104458000326010B2322B113032BC112832C8112D3
:10446800832B4113931DEB01135C2B00032B0113CA
:10447800232681091348FDFF135C9B0013DD2C00E4
:10448800131B7B01939CEC012324910923286109C8
:1044980033EDAD0113DB9B00832D8108232E6109C9
:1044A8002320A10D13DB9A01032DC108939A7A00EA
:1044B8002320510B935A9A01232A510B931A9900DE
:1044C80013597901232E210B33EDAD01032941083E
:1044D8009346F7FF939C7B011347F6FF931B7A00E3
:1044E80003268113B3EC8C012322A10D032C410B6D
:1044F80033ED6B01032B010A13DA790193999900C3
:10450800232C310BB3EA4A019359E9011319260008
:104518001356E601336B8B01832D0109032CC10B64
:10452800232CC10C2324910D03264108832CC10997
:1045380023225109832A810BB3ED9D0133E9290117
:10454800B3EA8A012326B10D2328A10D232A610D80
:1045580023245109232821098329810D13162600B4
:104568000329410EB3E9C9000326C10D23263109E9
:104578008329810933462601232EC1080329810E88
:104588000326010E032AC101832BC10F33462601DE
:104598002320C10A032941090326C10E032B410226
:1045A800832A810F33462601232AC1080326010FD7
:1045B80033CB6B012322610333463601232CC10818
:1045C8000326410F032B4103832B01103346460179
:1045D800032A0102B3C46401232A9102B3CA4A011F
:1045E800032A810283244110232EC10033CA4B01C0
:1045F80023244103032A8103232051033373330106
:10460800B3C44401032AC103232C910293C8FEFFBB
:1046180033CA4301232E410383230104032B811052
:10462800832B0105032C4105B3437B002320710430
:1046380083234104832C81050326010BB3C37F0028
:1046480023227104832F81048323C110032A410686
:10465800334FCF00B3CFF3012324F1058323011196
:10466800832FC10483290106232AE10BB3CFF30169
:1046780083234111032F810633754501B3CB7301A1
:1046880023287105832B81113345D5018323C10A62
:1046980033CC8B01832BC1112326F105232A8105F5
:1046A800B3CC9B01832B4112832F410A232C910504
:1046B800B3CB5B00232C710B337E2E01B3F838018A
:1046C8000329410183290112B3F5E501032F810A6A
:1046D800032B8101032AC107832401082326A10A89
:1046E8000325C105B3F65600934AFAFFB3C5A500E2
:1046F80013CAF4FF8324C10233C57600232EB10404
:10470800832641068325010633F6C9003377F7016E
:10471800334E9E00032CC106B345B600B346D700FE
:104728002326C10303278106032E01030326C1069E
:1047380093C7F2FF33787800832281072320B106DC
:1047480083254107B3F7E7013348E801832B0107C5
:10475800832941073343C301B3C8F801934DF9FFD7
:10476800934CFCFF2324010B33C8E7008324010882
:1047780003274101B3FDCD00134DFBFF03260107BD
:1047880013CBF2FF23286102832201012322110B9C
:104798002328A10A232401070325C107B3FCBC0071
:1047A800232E810A832581072322D10683268101AE
:1047B8000328810C032F8108832FC10813CCFBFF2A
:1047C80093CBF9FF8328C10C032E410D832E41089A
:1047D8008327C109B3FBAB00337B9B0013C5FFFFE5
:1047E8009344F8FF832F01091348FFFF032F410368
:1047F800337CBC00B3FA8A00337A5A009349F4FF39
:1048080013C9F2FF13C4F8FF9342FEFF93C8FEFFDB
:10481800032E410C832E010A93C5FFFFB3CFE70196
:10482800032F81030323010D83274109B3F9E9000D
:104838003379D900032701049346FEFF33CFEE01F5
:10484800032E8109832EC1039343F3FF334EEE00F9
:104858000323010C03274104B3CED7018327C101E9
:10486800337DCD001346F3FF33C3E700832781046C
:1048780003270102232C210D0329C1043347F70024
:1048880083274102232E710C83230105B3C7270117
:1048980003298102B34379002320710E0329410BB8
:1048A80083234105B3C323012322710E0329810BFE
:1048B80083238105B3C323010329C10B2324710E6C
:1048C800B3C32D0103294101832D0101232E710A50
:1048D800B3CC2C0103298101334DBD018323C10DC4
:1048E800B34D2C01032CC10603298107232CB101E8
:1048F80033CC8B01832B0107832D01082328A101C9
:10490800B34B7B01032B4107032D010D232A910192
:1049180033CB6A01B34A2A01032AC1070329810D4F
:10492800232A610733CB4901032AC1088329810857
:10493800B34DB901B3F8480103294108032A010915
:1049480023268107232C6107232EB107032B010C93
:10495800832D410DB3F232012328110D232871074D
:10496800832B410C8329410A33784801032AC10566
:10497800B3CF3F018329810A832CC10C334E4E01EA
:10498800334F3F018329C10A032A010BB3C29201A5
:10499800B3CE3E0183290106B3F323013347470110
:1049A80003294106032A010E334333012320510C06
:1049B80083298106B342B80103284108337565018C
:1049C800B3C727013348050133493A010325810854
:1049D800032A410E8329C102032C810CB3F575010A
:1049E8008328810EB3493A0133C5A500032A010380
:1049F8008325C1083376860133CA48013346B60099
:104A08008328010D2324C108032601093374B40146
:104A180033447401B3F69601B3CB8301B3C8A8013C
:104A2800B3CDC600832C41018326C10B03260101A7
:104A380083258101032CC1062322110D2324510C47
:104A48002322010923207109832B01070328C107A9
:104A5800B3F4A401B3C46401032B4107130D05008B
:104A6800B3420A010325810703284108B3CFDF00B9
:104A7800334FCF00832601080326010CB3C7670113
:104A8800B3C3A900B3CE9E01B3C90701334EBE001C
:104A980083278108B3CEDE00334ECE008325810CF8
:104AA80033495901334F8F003349A9018328410CF9
:104AB800232881082326A10D13D4FE01131D1E00EF
:104AC800B3CF9F00B3C3F300B3C2B201334777013A
:104AD8003364A40123269108139D1E009354FE01FC
:104AE800334AB700B3E4A4013343830113DDF30170
:104AF8009395120033431301135BF901939819003E
:104B0800B365BD0013DDF201B3425400032401066E
:104B1800131C13001357FA01B3681B01B3C8D8015B
:104B280093DBF901131819001395130033678701F4
:104B38003347F701931C1A009357F30113961F008C
:104B480033E80B013365AD00B34B140113DDFF01EE
:104B58000324010B832F0104B3E79701B3C7E701CF
:104B68003348C80193161F00B3C5450133CCFF0075
:104B7800334B0401832F4105032AC1030324410752
:104B8800B366DD00135DFF013366CD003345650074
:104B980033463601B34CEA00334AA40033C4CF008D
:104BA800832F8105B3C62601032F4102B3C37400C6
:104BB800B3C4DF00832F410A032381083349AF00C0
:104BC800032E8101032F8102B3CE7F00832F810A38
:104BD800334DC30003234109B349BF00334FFE00DF
:104BE800032E410CB3CF5F003343E300232AD105E2
:104BF800232CF105B34E1E01832F4101032E810C96
:104C0800232A610603238109334E0E01B3CABA0071
:104C18003343F3002324610803234104B3CDDD00AB
:104C2800B3CFEF0033431301232A61080323810420
:104C380033430301232C6108032341063343A300B4
:104C48002322610A032381063343B3002324610A24
:104C5800032381073343C3002328610A0323C107C1
:104C68003343D3002322610C0323C1083343730069
:104C78002324610C0323010933435300232C610CC3
:104C88000323C1023343C300232E610C0323010312
:104C98003343D3002320610E0323410333437300BE
:104CA8002322610E03238103334353002324610E1F
:104CB8000323C10A3343E3002326610E0323C105FE
:104CC8003343F3002328610E0323C1063343130142
:104CD800232A610E0323010733430301232C610EAA
:104CE800032341083343A300232461100323C10C89
:104CF8003343B300232261100323C101B3481301D6
:104D080003230102334803010323C1043345A300ED
:104D180003230105B345B3000323410B3346C30006
:104D28000323810BB346D3000323C10B3343730022
:104D38002322611403230101334353002320611408
:104D4800032301083347E3000323010C2324E11460
:104D58003347F3008327C10003A3870083A7C70055
:104D68002328610C232AF10C9317CC002328F10087
:104D780093D74C01232AF1009317BB00232CF10091
:104D880093D75B01232EF1009357BA002320F10239
:104D980093975A012322F10293572D012324F102FC
:104DA8009397ED001393C9012326F1029357490005
:104DB8002328F102232A6102139344019357C40064
:104DC800232E610203234105232CF1028327810549
:104DD80013144401232081041354D3012322810492
:104DE800139437002324810413D4D7018327410760
:104DF80023268104131433002328810413D3F701D5
:104E08001314DF00232A81042324610613D43F01ED
:104E18000323810893971700232C81042328F10684
:104E28001314DE0183274109135E3E00232E8104FB
:104E38002322C10713D43E00032E810923208106B3
:104E4800131413002326810613D4A701232A8106ED
:104E580013146E00232C81061354AE01232E8106F1
:104E68000324410A939767002320F108935774009D
:104E78002322F1088327810A939CCC00135C4C0100
:104E8800139E97012324C10913DE77002326C10945
:104E9800131E94012328C1090324010B8327410C05
:104EA80033EC8C01135E8401232AC109139E870009
:104EB800232CC10913DE87012322C10B131E840092
:104EC8000324810C8327810D2324C10B135EE40086
:104ED8002326C10B139E27012328C10B13DEE700ED
:104EE800232AC10B131E24010324C10D8327010E9D
:104EF800232CC10B135E5400232EC10B139EB70144
:104F08002320C10D13DE57008327810E2322C10DF4
:104F1800131EB4010324410E2324C10D139E470020
:104F28002326C10D135EC40113144400232E810CE3
:104F38000324C10E93D7C7012320F10E93576401B0
:104F48002322F10E8327010F232CC10D135B5B0174
:104F5800139EA70093D767012326F10E9317A40089
:104F68000324410F2328F10E2324C10F9357140162
:104F7800232AF10E8327810F1314F40023208110B4
:104F8800139EF70093D71701232EF10E83274110A4
:104F9800232CC10F939BBB001394870123228110FC
:104FA8000324811093D787002328F110135E84000F
:104FB80093D72800131484019398E80123268110BD
:104FC800232E11111314E801935895001358280043
:104FD80013157501232001132326A11213987501B7
:104FE8000325011493D595002328B11293957600D3
:104FF800232AB1129355960113167600232EC11257
:10500800131695002320C1140326411423241113D9
:10501800232CB112935876019315960013567501F7
:10502800131527001357E7012322E1140327C109A9
:10503800232A811003248114B34377000327010A2C
:10504800232CF11023220113B34257001358E40113
:105058000327010193172400032441012324C111CC
:10506800B3EB6B01336787002328E1000324810138
:10507800832CC101032B410293DABA00B36C94016B
:1050880003240102131A5A0133EA4A01336B6401FB
:10509800832AC1020324810293DD2D01131DED0033
:1050A800B36A5401232A510103240103B3EAAD0171
:1050B800032D410393D949001319C901336DA40184
:1050C80033E92901032481038329C10393D4C4004C
:1050D800232EA101B36934010324010423203103E1
:1050E8008329810433E4840083244104032D81054A
:1050F800939FDF00B3E4340123249102832901053F
:105108008324C104135F3F0133EFEF01B3E434019B
:1051180083294105832FC105032E4106B3E9A9015F
:10512800032D0106939EDE0133EECE01B3EFAF01EE
:10513800832E81062328F103832FC1061353F3011D
:10514800232C2101B3EEFE01832F010723229102B4
:10515800232631033363F301232AC103232ED1030A
:10516800232C6102032D8107832F4107032901089E
:10517800032E8108B3EFAF01032DC107832DC108AA
:10518800832E8109336D2D01032941080327010B63
:105198002322F1053369C901032E0109832FC10BAD
:1051A8008324410CB3EDCD01032E41098329C10CA1
:1051B8002320A1053363DE01832E810A032E410AD1
:1051C800232621052324B105336EDE01832EC10A6F
:1051D8002328C105032E810BB3EEEE000327410BF4
:1051E800232A6104232ED1053367C701032E010C3E
:1051F800232CE10493D69601B3EFCF01032E810C43
:105208002322F107B3E5C500B3E4C401032E810DE1
:10521800232091063366A800B3E9C9012324310786
:105228000329010E032DC10D032E810E832E010FBC
:10523800336D2D010329410E832D011003278110A1
:105248003369C901032EC10E832F011183248111F3
:105258003363DE01832E810F032E410F8329011250
:105268002326A107336EDE01832EC10F032D811281
:10527800232A2107B3EEBE01832D41100329011310
:1052880023286106B3EDED000327C110232EC107C3
:10529800232CD1073367F701832F41112320B1094C
:1052A8002322E108B3EF9F008324C1112324F109CD
:1052B800B3E4340183294112232691089344F4FF6F
:1052C800B3E9A901032DC1122328310993C9F3FFBA
:1052D800336D2D01232AA109032E811303294113BC
:1052E80003274114032381023369C901032EC11323
:1052F8003365F700832EC102B366DE00232ED10882
:1053080083260114032E4102032841032324A10A02
:1053180003250103B3E816019347FBFF232C21095A
:10532800232A510A13C9F2FF9342F3FF032701010D
:105338002320110B2322B10A832801022326C10A44
:10534800232C810B03264101232E910B2320710D61
:105358002322410D2324610D2322F10E2326510D12
:105368002328710A232E810C9343FEFF2324510E18
:1053780093CFFEFF2320E10F934EF5FF134EF8FF66
:10538800032881010325C101032BC105832641049C
:10539800832741059342FBFF032B81032326510EEC
:1053A800934DF7FF9342FBFF032BC1032328510EB4
:1053B8000327C1049342FBFF032B8106232A510EC6
:1053C800134DFCFF9342FBFF032BC106232C510E08
:1053D80013CCFBFF9342FBFF032B0107232E510E37
:1053E800934BFAFF9342FBFF032B410723225110F3
:1053F800134AF6FF9342FBFF032B81072324511026
:10540800032601049342FBFF032BC10723265110F7
:10541800832581049342FBFF032B010823285110A5
:1054280013C4F8FF9342FBFF032B4108232A5110B2
:105438001343F8FF9342FBFF032B0106232C511063
:105448009348F5FF9342FBFF1348F6FF13C5F6FF99
:105458001346F7FF8326010513C7F7FF232E5110C4
:1054680083278105032B410693CCFCFF93CAFAFFDF
:105478009342FBFF032B010923205112134FFFFF17
:105488009342FBFF032B41092322511293C5F5FFD9
:105498009342FBFF032B81092324511293C6F6FF85
:1054A8009342FBFF032BC1092326511293C7F7FF31
:1054B8009342FBFF032B010A232851129342FBFF5F
:1054C800032B410A232A51129342FBFF032B810A23
:1054D800232C51129342FBFF032BC10A232E511296
:1054E8009342FBFF032B8108232051149342FBFFB7
:1054F800032BC108232251149342FBFF2324511488
:10550800032B010B8322010DB3C262012328510C26
:10551800032B410B8322410DB3C26201032BC10B44
:10552800232A510C33FB6D01232C610D032B010C35
:10553800832D410C337D6D01032B810CB3FCBC0121
:10554800832D410E337C6C01032BC10C8322810E09
:10555800B3FB6B01032B410133FB6D01832D010B61
:10556800B3FABA01832D410B337ABA01832D0101B5
:10557800B3F9B901832D810B3379B901832D410228
:10558800B3F4B401832D81023374B401832DC102B5
:10559800B3F3B301832D010E2322710E8323C10EB1
:1055A800B3F2B201832D0103B3FFBF01832D410381
:1055B800337FBF01832D8101B3FEBE01832DC1015D
:1055C800337EBE01832DC10D3373B301832D0102D8
:1055D800B3F8B801832D81043378B801832DC10451
:1055E8003375B501832D0105B3F5B501832D41054B
:1055F8003376B601832D8105B3F6B601832DC10537
:105608003377B701832D8103B3F7B701832DC10326
:10561800B3F3B3012326710E832D01048323010FF5
:10562800B3F3B3012328710E8323410F832D410463
:10563800B3F3B301232A710E832D01078323810F4E
:10564800B3F3B301232C710E832D41078323C10FBC
:10565800B3F3B30123207110832D810783234110F5
:10566800B3F3B30123227110832DC1078323811063
:10567800B3F3B30123247110832D01088323C110D0
:10568800B3F3B30123267110832D4108832301113D
:10569800B3F3B30123287110832D0106832341112D
:1056A800B3F3B301232A7110832D4106832381119B
:1056B800B3F3B301232C7110832D81068323C11109
:1056C800B3F3B301232E7110832DC1068323011276
:1056D800B3F3B3012320711283234112832D81096F
:1056E800B3F3B30123227112832DC10983238112DD
:1056F800B3F3B30123247112832D010A8323C1124A
:10570800B3F3B30123267112832D410A83230113B6
:10571800B3F3B30123287112832D810A8323411324
:10572800B3F3B301232A7112832DC10A8323811392
:10573800B3F3B301232C7112832D81088323C11382
:10574800B3F3B301232E7112832DC10883230114EF
:10575800B3F3B30123207114832D0109832341146A
:10576800B3F3B30123227114832D410983238114D8
:10577800B3F3B301832DC10023247114938D0D015C
:105788002326B1018323010D832D810DB3C3B301FA
:105798002328710A8323410D832D010133CDA301F1
:1057A800232AA10B33CDBC01832D810B832CC10B84
:1057B8008323410E334CBC01232C810B33CC9B013A
:1057C800832B010C832D410C2328A101B34B7B01B2
:1057D800032B810C2320710DB3CBBA01832AC10C92
:1057E800334A6A01032B4101B3C959012326310DFC
:1057F800B349690103298101832DC1012322710D58
:10580800B3C42401232A910CB344B4010324C10D69
:10581800832D0102232E810BB3C3830033C4B2014D
:10582800832241022324410D2328310DB3CF5F0089
:10583800232EF101232C910C232E710E232A810093
:10584800832D8102B34FBF01832DC1022320F103B1
:10585800B3CEBE01832D010E232ED10D334EBE01D2
:10586800832D01032320C10F3343B301832D41034B
:10587800232C610033C3B80183288103832DC1031E
:105888002322610233481801232401033348B50158
:1058980003250104832D41042326010333C5A500F4
:1058A800832581043346B601832DC10433C9B6006C
:1058B800832601052324C10E334BB70133C6D70015
:1058C800832D41058326C10E832781052328C10224
:1058D80033C6B6018326010F832DC105232AC102D1
:1058E80033C6F6008326410F2326C10E2322A10EBC
:1058F80033C6B6012328C10E8326810F83270106EC
:10590800832D410633C6F60083260110232AC10ED3
:105918008327010733C6B60183264110832D8106EC
:10592800232CC10E33C6B60183268110832DC106F0
:10593800232CC10233C6B6018326C110832D41072B
:10594800232EC10233C6F60083260111832781075F
:10595800232EC10433C6B60183264111832DC10706
:105968002320C106B3CBF6008326811133CDB601BF
:105978008326C111832D010833C6B601832601127F
:10598800832D41082320C10433C6B6018326411262
:10599800832D81082322C10433C6B60183268112D0
:1059A800832DC1082324C10433C6B6012326C104AC
:1059B8008326C112832D01090327810A8327C10A7F
:1059C80033C6B60183260113832D41092326C10658
:1059D80033C6B60183264113832D81092328C106C6
:1059E80033C6B60183268113832DC1092328C10438
:1059F80033C6B6018326C113832D010A232AC104A5
:105A080033C6B60183260114832D410A2322C10619
:105A180033C6B601832641142324C106B3CDE6005C
:105A280003278114B34AF7008327C1001737000002
:105A38001307C7076304F7006FE08F850325C114B8
:105A48008327010B930C0900232E45012320F50021
:105A58008327410B23269502232A85022322F5005A
:105A68008327010123287502232EF5032324F5003B
:105A78008327810B2320D5052322C5052326F5007E
:105A88008327C10B2328F5008327010C232AF5005F
:105A98008327410C232CF5008327C10C2320F50212
:105AA8008327010D2322F5028327410D2324F502C4
:105AB8008327C101232CF502832781012324F504C0
:105AC800232665048327810223209507232265075F
